{
  "contractName": "ChessGame",
  "abi": [
    {
      "inputs": [
        {
          "internalType": "address[]",
          "name": "_players",
          "type": "address[]"
        },
        {
          "internalType": "uint256",
          "name": "_blockFactor",
          "type": "uint256"
        }
      ],
      "stateMutability": "nonpayable",
      "type": "constructor"
    },
    {
      "inputs": [],
      "name": "blockFactor",
      "outputs": [
        {
          "internalType": "uint256",
          "name": "",
          "type": "uint256"
        }
      ],
      "stateMutability": "view",
      "type": "function"
    },
    {
      "inputs": [],
      "name": "isGameOver",
      "outputs": [
        {
          "internalType": "bool",
          "name": "",
          "type": "bool"
        }
      ],
      "stateMutability": "view",
      "type": "function"
    },
    {
      "inputs": [],
      "name": "lastMove",
      "outputs": [
        {
          "internalType": "uint256",
          "name": "",
          "type": "uint256"
        }
      ],
      "stateMutability": "view",
      "type": "function"
    },
    {
      "inputs": [
        {
          "internalType": "uint256",
          "name": "",
          "type": "uint256"
        }
      ],
      "name": "players",
      "outputs": [
        {
          "internalType": "address",
          "name": "",
          "type": "address"
        }
      ],
      "stateMutability": "view",
      "type": "function"
    },
    {
      "inputs": [
        {
          "internalType": "address",
          "name": "",
          "type": "address"
        }
      ],
      "name": "team",
      "outputs": [
        {
          "internalType": "bool",
          "name": "",
          "type": "bool"
        }
      ],
      "stateMutability": "view",
      "type": "function"
    },
    {
      "inputs": [],
      "name": "turn",
      "outputs": [
        {
          "internalType": "bool",
          "name": "",
          "type": "bool"
        }
      ],
      "stateMutability": "view",
      "type": "function"
    },
    {
      "inputs": [],
      "name": "winner",
      "outputs": [
        {
          "internalType": "bool",
          "name": "",
          "type": "bool"
        }
      ],
      "stateMutability": "view",
      "type": "function"
    },
    {
      "inputs": [
        {
          "internalType": "string",
          "name": "_proposedMove",
          "type": "string"
        }
      ],
      "name": "voteTurn",
      "outputs": [],
      "stateMutability": "nonpayable",
      "type": "function"
    }
  ],
  "bytecode": "0x608060405234801561001057600080fd5b506040516109af3803806109af8339818101604052604081101561003357600080fd5b810190808051604051939291908464010000000082111561005357600080fd5b8382019150602082018581111561006957600080fd5b825186602082028301116401000000008211171561008657600080fd5b8083526020830192505050908051906020019060200280838360005b838110156100bd5780820151818401526020810190506100a2565b505050509050016040526020018051906020019092919050505081600290805190602001906100ed929190610154565b50806004819055506000600560006101000a81548160ff0219169083151502179055506000600560016101000a81548160ff0219169083151502179055506000600560026101000a81548160ff021916908315150217905550436006819055505050610221565b8280548282559060005260206000209081019282156101cd579160200282015b828111156101cc5782518260006101000a81548173ffffffffffffffffffffffffffffffffffffffff021916908373ffffffffffffffffffffffffffffffffffffffff16021790555091602001919060010190610174565b5b5090506101da91906101de565b5090565b61021e91905b8082111561021a57600081816101000a81549073ffffffffffffffffffffffffffffffffffffffff0219169055506001016101e4565b5090565b90565b61077f806102306000396000f3fe608060405234801561001057600080fd5b50600436106100885760003560e01c80638c44da1c1161005b5780638c44da1c1461014b578063a01e2f2314610206578063dfbf53ae14610224578063f71d96cb1461024657610088565b80630e001b381461008d5780630e04a7d8146100ab5780633de94925146100cd5780638b29990314610129575b600080fd5b6100956102b4565b6040518082815260200191505060405180910390f35b6100b36102ba565b604051808215151515815260200191505060405180910390f35b61010f600480360360208110156100e357600080fd5b81019080803573ffffffffffffffffffffffffffffffffffffffff1690602001909291905050506102cd565b604051808215151515815260200191505060405180910390f35b6101316102ed565b604051808215151515815260200191505060405180910390f35b6102046004803603602081101561016157600080fd5b810190808035906020019064010000000081111561017e57600080fd5b82018360208201111561019057600080fd5b803590602001918460018302840111640100000000831117156101b257600080fd5b91908080601f016020809104026020016040519081016040528093929190818152602001838380828437600081840152601f19601f820116905080830192505050505050509192919290505050610300565b005b61020e61060c565b6040518082815260200191505060405180910390f35b61022c610612565b604051808215151515815260200191505060405180910390f35b6102726004803603602081101561025c57600080fd5b8101908080359060200190929190505050610625565b604051808273ffffffffffffffffffffffffffffffffffffffff1673ffffffffffffffffffffffffffffffffffffffff16815260200191505060405180910390f35b60065481565b600560019054906101000a900460ff1681565b60036020528060005260406000206000915054906101000a900460ff1681565b600560009054906101000a900460ff1681565b60001515600560019054906101000a900460ff1615151461036c576040517f08c379a00000000000000000000000000000000000000000000000000000000081526004018080602001828103825260268152602001806107246026913960400191505060405180910390fd5b600560009054906101000a900460ff161515600360003373ffffffffffffffffffffffffffffffffffffffff1673ffffffffffffffffffffffffffffffffffffffff16815260200190815260200160002060009054906101000a900460ff16151514610440576040517f08c379a00000000000000000000000000000000000000000000000000000000081526004018080602001828103825260148152602001807f4e6f7420796f7572207475726e2c20736f72727900000000000000000000000081525060200191505060405180910390fd5b43600454600654011115801561045857506000600754145b1561049057610465610661565b600560009054906101000a900460ff1615600560026101000a81548160ff0219169083151502179055505b60011515600160009054906101000a900473ffffffffffffffffffffffffffffffffffffffff1673ffffffffffffffffffffffffffffffffffffffff166316e23104836040518263ffffffff1660e01b81526004018080602001828103825283818151815260200191508051906020019080838360005b83811015610522578082015181840152602081019050610507565b50505050905090810190601f16801561054f5780820380516001836020036101000a031916815260200191505b5092505050602060405180830381600087803b15801561056e57600080fd5b505af1158015610582573d6000803e3d6000fd5b505050506040513d602081101561059857600080fd5b81019080805190602001909291905050501515146105b557600080fd5b80600860003373ffffffffffffffffffffffffffffffffffffffff1673ffffffffffffffffffffffffffffffffffffffff168152602001908152602001600020908051906020019061060892919061067e565b5050565b60045481565b600560029054906101000a900460ff1681565b6002818154811061063257fe5b906000526020600020016000915054906101000a900473ffffffffffffffffffffffffffffffffffffffff1681565b6001600560016101000a81548160ff021916908315150217905550565b828054600181600116156101000203166002900490600052602060002090601f016020900481019282601f106106bf57805160ff19168380011785556106ed565b828001600101855582156106ed579182015b828111156106ec5782518255916020019190600101906106d1565b5b5090506106fa91906106fe565b5090565b61072091905b8082111561071c576000816000905550600101610704565b5090565b9056fe47616d65206973206f7665722c206e6f206d6f726520766f74696e6720666f72207475726e73a26469706673582212201c2ba22889491539241592c6067ad960d1e553ed025951ae9f3e38c6016c4b6964736f6c63430006010033",
  "source": "\r\npragma solidity >=0.4.22 <0.8.0;\r\n\r\nimport './GameEngine.sol';\r\nimport './BoardState.sol';\r\n\r\ncontract ChessGame {\r\n\r\n    BoardState boardState;\r\n    GameEngine gameEngine;\r\n\r\n    //A list of players. Odd numbers are black, even numbers are white.\r\n    address[] public players;\r\n\r\n    //Mapping of which team an address is on\r\n    //False = White, True = Black\r\n    mapping(address => bool) public team;\r\n    //Time limit on each move, measured in block height (Making this an estimate)\r\n    uint public blockFactor;\r\n    //False = White, True = Black\r\n    bool public turn;\r\n    bool public isGameOver;\r\n    bool public winner;\r\n    uint public lastMove;\r\n    \r\n    uint numberOfMoves;\r\n\r\n    //Proposed Moves\r\n    mapping(address => string) proposedMoves;\r\n\r\n    constructor (address[] memory _players, uint _blockFactor) public {\r\n        players = _players;\r\n        blockFactor = _blockFactor;\r\n        turn = false;\r\n        isGameOver = false;\r\n        winner = false;\r\n        lastMove = block.number;\r\n    }\r\n    \r\n    function gameOver() internal {\r\n        isGameOver = true;\r\n    }\r\n\r\n    function voteTurn(string memory _proposedMove) public {\r\n        //TODO Require only participants (and the correct team) to be able to vote\r\n\r\n        require(isGameOver == false, \"Game is over, no more voting for turns\");\r\n        require(team[msg.sender] == turn, \"Not your turn, sorry\" ); // TODO  - Logic that says OR time has expired\r\n        if(lastMove + blockFactor <= block.number && numberOfMoves == 0) {\r\n            gameOver();\r\n            winner = !turn;\r\n        }\r\n        require(gameEngine.evaluateMove(_proposedMove) == true);\r\n        proposedMoves[msg.sender] = _proposedMove;\r\n    }\r\n\r\n}",
  "sourcePath": "E:/dev/Consensys Course/EtherChess/contracts/ChessGame.sol",
  "compiler": {
    "name": "solc",
    "version": "0.6.1+commit.e6f7d5a4.Emscripten.clang"
  },
  "schemaVersion": "3.2.5",
  "updatedAt": "2020-11-30T15:52:45.600Z",
  "devdoc": {
    "methods": {}
  },
  "userdoc": {
    "methods": {}
  }
}