{
  "contractName": "ChessGame",
  "abi": [
    {
      "inputs": [
        {
          "internalType": "address[]",
          "name": "_whitePlayers",
          "type": "address[]"
        },
        {
          "internalType": "address[]",
          "name": "_blackPlayers",
          "type": "address[]"
        },
        {
          "internalType": "uint256",
          "name": "_blockFactor",
          "type": "uint256"
        }
      ],
      "stateMutability": "nonpayable",
      "type": "constructor"
    },
    {
      "inputs": [
        {
          "internalType": "uint256",
          "name": "",
          "type": "uint256"
        }
      ],
      "name": "blackPlayers",
      "outputs": [
        {
          "internalType": "address",
          "name": "",
          "type": "address"
        }
      ],
      "stateMutability": "view",
      "type": "function",
      "constant": true
    },
    {
      "inputs": [],
      "name": "blockFactor",
      "outputs": [
        {
          "internalType": "uint256",
          "name": "",
          "type": "uint256"
        }
      ],
      "stateMutability": "view",
      "type": "function",
      "constant": true
    },
    {
      "inputs": [],
      "name": "isGameOver",
      "outputs": [
        {
          "internalType": "bool",
          "name": "",
          "type": "bool"
        }
      ],
      "stateMutability": "view",
      "type": "function",
      "constant": true
    },
    {
      "inputs": [],
      "name": "lastMove",
      "outputs": [
        {
          "internalType": "uint256",
          "name": "",
          "type": "uint256"
        }
      ],
      "stateMutability": "view",
      "type": "function",
      "constant": true
    },
    {
      "inputs": [
        {
          "internalType": "address",
          "name": "",
          "type": "address"
        }
      ],
      "name": "team",
      "outputs": [
        {
          "internalType": "bool",
          "name": "",
          "type": "bool"
        }
      ],
      "stateMutability": "view",
      "type": "function",
      "constant": true
    },
    {
      "inputs": [],
      "name": "turn",
      "outputs": [
        {
          "internalType": "bool",
          "name": "",
          "type": "bool"
        }
      ],
      "stateMutability": "view",
      "type": "function",
      "constant": true
    },
    {
      "inputs": [
        {
          "internalType": "uint256",
          "name": "",
          "type": "uint256"
        }
      ],
      "name": "whitePlayers",
      "outputs": [
        {
          "internalType": "address",
          "name": "",
          "type": "address"
        }
      ],
      "stateMutability": "view",
      "type": "function",
      "constant": true
    },
    {
      "inputs": [],
      "name": "winner",
      "outputs": [
        {
          "internalType": "bool",
          "name": "",
          "type": "bool"
        }
      ],
      "stateMutability": "view",
      "type": "function",
      "constant": true
    },
    {
      "inputs": [],
      "name": "getCurrentTeamsPlayers",
      "outputs": [
        {
          "internalType": "string",
          "name": "turnString",
          "type": "string"
        },
        {
          "internalType": "address[]",
          "name": "players",
          "type": "address[]"
        }
      ],
      "stateMutability": "view",
      "type": "function",
      "constant": true
    },
    {
      "inputs": [
        {
          "internalType": "string",
          "name": "_proposedMove",
          "type": "string"
        }
      ],
      "name": "voteTurn",
      "outputs": [],
      "stateMutability": "nonpayable",
      "type": "function"
    },
    {
      "inputs": [],
      "name": "getBoardState",
      "outputs": [
        {
          "internalType": "string",
          "name": "FEN",
          "type": "string"
        }
      ],
      "stateMutability": "view",
      "type": "function",
      "constant": true
    }
  ],
  "bytecode": "0x60806040523480156200001157600080fd5b506040516200271238038062002712833981810160405260608110156200003757600080fd5b81019080805160405193929190846401000000008211156200005857600080fd5b838201915060208201858111156200006f57600080fd5b82518660208202830111640100000000821117156200008d57600080fd5b8083526020830192505050908051906020019060200280838360005b83811015620000c6578082015181840152602081019050620000a9565b5050505090500160405260200180516040519392919084640100000000821115620000f057600080fd5b838201915060208201858111156200010757600080fd5b82518660208202830111640100000000821117156200012557600080fd5b8083526020830192505050908051906020019060200280838360005b838110156200015e57808201518184015260208101905062000141565b50505050905001604052602001805190602001909291905050506004835110620001f0576040517f08c379a000000000000000000000000000000000000000000000000000000000815260040180806020018281038252601b8152602001807f4d6178696d756d203420706c61796572732065616368207465616d000000000081525060200191505060405180910390fd5b600482511062000268576040517f08c379a000000000000000000000000000000000000000000000000000000000815260040180806020018281038252601b8152602001807f4d6178696d756d203420706c61796572732065616368207465616d000000000081525060200191505060405180910390fd5b826002908051906020019062000280929190620005a5565b50816003908051906020019062000299929190620005a5565b50806005819055506000600660006101000a81548160ff0219169083151502179055506000600660016101000a81548160ff0219169083151502179055506000600660026101000a81548160ff02191690831515021790555043600781905550604051620003079062000634565b604051809103906000f08015801562000324573d6000803e3d6000fd5b50600160006101000a81548173ffffffffffffffffffffffffffffffffffffffff021916908373ffffffffffffffffffffffffffffffffffffffff160217905550604051620003739062000642565b604051809103906000f08015801562000390573d6000803e3d6000fd5b506000806101000a81548173ffffffffffffffffffffffffffffffffffffffff021916908373ffffffffffffffffffffffffffffffffffffffff1602179055506000600a819055506200047360028054806020026020016040519081016040528092919081815260200182805480156200046057602002820191906000526020600020905b8160009054906101000a900473ffffffffffffffffffffffffffffffffffffffff1673ffffffffffffffffffffffffffffffffffffffff168152602001906001019080831162000415575b505050505060006200051760201b60201c565b6200050e6003805480602002602001604051908101604052809291908181526020018280548015620004fb57602002820191906000526020600020905b8160009054906101000a900473ffffffffffffffffffffffffffffffffffffffff1673ffffffffffffffffffffffffffffffffffffffff1681526020019060010190808311620004b0575b505050505060016200051760201b60201c565b50505062000696565b60008090505b8251811015620005a05781600460008584815181106200053957fe5b602002602001015173ffffffffffffffffffffffffffffffffffffffff1673ffffffffffffffffffffffffffffffffffffffff16815260200190815260200160002060006101000a81548160ff02191690831515021790555080806001019150506200051d565b505050565b82805482825590600052602060002090810192821562000621579160200282015b82811115620006205782518260006101000a81548173ffffffffffffffffffffffffffffffffffffffff021916908373ffffffffffffffffffffffffffffffffffffffff16021790555091602001919060010190620005c6565b5b50905062000630919062000650565b5090565b61014f806200193e83390190565b610c858062001a8d83390190565b6200069391905b808211156200068f57600081816101000a81549073ffffffffffffffffffffffffffffffffffffffff02191690555060010162000657565b5090565b90565b61129880620006a66000396000f3fe608060405234801561001057600080fd5b50600436106100a95760003560e01c80638c44da1c116100715780638c44da1c146101ef578063a01e2f23146102aa578063a2522d0b146102c8578063ca78232d14610393578063dfbf53ae14610401578063fc54a23714610423576100a9565b80630e001b38146100ae5780630e04a7d8146100cc5780632420f7f0146100ee5780633de94925146101715780638b299903146101cd575b600080fd5b6100b6610491565b6040518082815260200191505060405180910390f35b6100d4610497565b604051808215151515815260200191505060405180910390f35b6100f66104aa565b6040518080602001828103825283818151815260200191508051906020019080838360005b8381101561013657808201518184015260208101905061011b565b50505050905090810190601f1680156101635780820380516001836020036101000a031916815260200191505b509250505060405180910390f35b6101b36004803603602081101561018757600080fd5b81019080803573ffffffffffffffffffffffffffffffffffffffff169060200190929190505050610611565b604051808215151515815260200191505060405180910390f35b6101d5610631565b604051808215151515815260200191505060405180910390f35b6102a86004803603602081101561020557600080fd5b810190808035906020019064010000000081111561022257600080fd5b82018360208201111561023457600080fd5b8035906020019184600183028401116401000000008311171561025657600080fd5b91908080601f016020809104026020016040519081016040528093929190818152602001838380828437600081840152601f19601f820116905080830192505050505050509192919290505050610644565b005b6102b261096a565b6040518082815260200191505060405180910390f35b6102d0610970565b604051808060200180602001838103835285818151815260200191508051906020019080838360005b838110156103145780820151818401526020810190506102f9565b50505050905090810190601f1680156103415780820380516001836020036101000a031916815260200191505b50838103825284818151815260200191508051906020019060200280838360005b8381101561037d578082015181840152602081019050610362565b5050505090500194505050505060405180910390f35b6103bf600480360360208110156103a957600080fd5b8101908080359060200190929190505050610b23565b604051808273ffffffffffffffffffffffffffffffffffffffff1673ffffffffffffffffffffffffffffffffffffffff16815260200191505060405180910390f35b610409610b5f565b604051808215151515815260200191505060405180910390f35b61044f6004803603602081101561043957600080fd5b8101908080359060200190929190505050610b72565b604051808273ffffffffffffffffffffffffffffffffffffffff1673ffffffffffffffffffffffffffffffffffffffff16815260200191505060405180910390f35b60075481565b600660019054906101000a900460ff1681565b60606000809054906101000a900473ffffffffffffffffffffffffffffffffffffffff1673ffffffffffffffffffffffffffffffffffffffff1663fbfc2d656040518163ffffffff1660e01b815260040160006040518083038186803b15801561051357600080fd5b505afa158015610527573d6000803e3d6000fd5b505050506040513d6000823e3d601f19601f82011682018060405250602081101561055157600080fd5b810190808051604051939291908464010000000082111561057157600080fd5b8382019150602082018581111561058757600080fd5b82518660018202830111640100000000821117156105a457600080fd5b8083526020830192505050908051906020019080838360005b838110156105d85780820151818401526020810190506105bd565b50505050905090810190601f1680156106055780820380516001836020036101000a031916815260200191505b50604052505050905090565b60046020528060005260406000206000915054906101000a900460ff1681565b600660009054906101000a900460ff1681565b60001515600660019054906101000a900460ff161515146106b0576040517f08c379a000000000000000000000000000000000000000000000000000000000815260040180806020018281038252602681526020018061123d6026913960400191505060405180910390fd5b600660009054906101000a900460ff161515600460003373ffffffffffffffffffffffffffffffffffffffff1673ffffffffffffffffffffffffffffffffffffffff16815260200190815260200160002060009054906101000a900460ff16151514610784576040517f08c379a00000000000000000000000000000000000000000000000000000000081526004018080602001828103825260148152602001807f4e6f7420796f7572207475726e2c20736f72727900000000000000000000000081525060200191505060405180910390fd5b43600554600754011115801561079c57506000600854145b156107d4576107a9610bae565b600660009054906101000a900460ff1615600660026101000a81548160ff0219169083151502179055505b60011515600160009054906101000a900473ffffffffffffffffffffffffffffffffffffffff1673ffffffffffffffffffffffffffffffffffffffff166316e23104836040518263ffffffff1660e01b81526004018080602001828103825283818151815260200191508051906020019080838360005b8381101561086657808201518184015260208101905061084b565b50505050905090810190601f1680156108935780820380516001836020036101000a031916815260200191505b5092505050602060405180830381600087803b1580156108b257600080fd5b505af11580156108c6573d6000803e3d6000fd5b505050506040513d60208110156108dc57600080fd5b81019080805190602001909291905050501515146108f957600080fd5b80600960003373ffffffffffffffffffffffffffffffffffffffff1673ffffffffffffffffffffffffffffffffffffffff168152602001908152602001600020908051906020019061094c929190611197565b50600a60008154809291906001019190505550610967610bcb565b50565b60055481565b60608060001515600660009054906101000a900460ff1615151415610a595760026040518060400160405280600581526020017f57686974650000000000000000000000000000000000000000000000000000008152509080805480602002602001604051908101604052809291908181526020018280548015610a4957602002820191906000526020600020905b8160009054906101000a900473ffffffffffffffffffffffffffffffffffffffff1673ffffffffffffffffffffffffffffffffffffffff16815260200190600101908083116109ff575b5050505050905091509150610b1f565b60036040518060400160405280600581526020017f426c61636b0000000000000000000000000000000000000000000000000000008152509080805480602002602001604051908101604052809291908181526020018280548015610b1357602002820191906000526020600020905b8160009054906101000a900473ffffffffffffffffffffffffffffffffffffffff1673ffffffffffffffffffffffffffffffffffffffff1681526020019060010190808311610ac9575b50505050509050915091505b9091565b60028181548110610b3057fe5b906000526020600020016000915054906101000a900473ffffffffffffffffffffffffffffffffffffffff1681565b600660029054906101000a900460ff1681565b60038181548110610b7f57fe5b906000526020600020016000915054906101000a900473ffffffffffffffffffffffffffffffffffffffff1681565b6001600660016101000a81548160ff021916908315150217905550565b6000600660009054906101000a900460ff1615610bef576003805490509050610bf8565b60028054905090505b80600a5410610c0a57610c09610c0d565b5b50565b6000606060001515600660009054906101000a900460ff1615151415610cbb576002805480602002602001604051908101604052809291908181526020018280548015610caf57602002820191906000526020600020905b8160009054906101000a900473ffffffffffffffffffffffffffffffffffffffff1673ffffffffffffffffffffffffffffffffffffffff1681526020019060010190808311610c65575b50505050509050610d45565b6003805480602002602001604051908101604052809291908181526020018280548015610d3d57602002820191906000526020600020905b8160009054906101000a900473ffffffffffffffffffffffffffffffffffffffff1673ffffffffffffffffffffffffffffffffffffffff1681526020019060010190808311610cf3575b505050505090505b60606001600a5401604051908082528060200260200182016040528015610d8057816020015b6060815260200190600190039081610d6b5790505b509050600080905060008490505b600a54811015610f255760096000858381518110610da857fe5b602002602001015173ffffffffffffffffffffffffffffffffffffffff1673ffffffffffffffffffffffffffffffffffffffff1681526020019081526020016000208054600181600116156101000203166002900480601f016020809104026020016040519081016040528092919081815260200182805460018160011615610100020316600290048015610e7e5780601f10610e5357610100808354040283529160200191610e7e565b820191906000526020600020905b815481529060010190602001808311610e6157829003601f168201915b5050505050838381518110610e8f57fe5b60200260200101819052506040518060200160405280600081525060096000868481518110610eba57fe5b602002602001015173ffffffffffffffffffffffffffffffffffffffff1673ffffffffffffffffffffffffffffffffffffffff1681526020019081526020016000209080519060200190610f0f929190611197565b5081806001019250508080600101915050610d8e565b5060006001600a541415610f3c5760009050610f78565b600a546001430340604051602001808281526020019150506040516020818303038152906040528051906020012060001c81610f7457fe5b0690505b6000809054906101000a900473ffffffffffffffffffffffffffffffffffffffff1673ffffffffffffffffffffffffffffffffffffffff16636aa68e4b848381518110610fc157fe5b60200260200101516040518263ffffffff1660e01b81526004018080602001828103825283818151815260200191508051906020019080838360005b83811015611018578082015181840152602081019050610ffd565b50505050905090810190601f1680156110455780820380516001836020036101000a031916815260200191505b5092505050600060405180830381600087803b15801561106457600080fd5b505af1158015611078573d6000803e3d6000fd5b505050506040513d6000823e3d601f19601f8201168201806040525060208110156110a257600080fd5b81019080805160405193929190846401000000008211156110c257600080fd5b838201915060208201858111156110d857600080fd5b82518660018202830111640100000000821117156110f557600080fd5b8083526020830192505050908051906020019080838360005b8381101561112957808201518184015260208101905061110e565b50505050905090810190601f1680156111565780820380516001836020036101000a031916815260200191505b50604052505050506000600a81905550600660009054906101000a900460ff1615600660006101000a81548160ff0219169083151502179055505050505050565b828054600181600116156101000203166002900490600052602060002090601f016020900481019282601f106111d857805160ff1916838001178555611206565b82800160010185558215611206579182015b828111156112055782518255916020019190600101906111ea565b5b5090506112139190611217565b5090565b61123991905b8082111561123557600081600090555060010161121d565b5090565b9056fe47616d65206973206f7665722c206e6f206d6f726520766f74696e6720666f72207475726e73a2646970667358221220a5e481dd87b1db263cf6e3aa35cc6f65267631ebeda65a5515dcaa3ea1b6f86664736f6c63430006010033608060405234801561001057600080fd5b5061012f806100206000396000f3fe608060405260043610601c5760003560e01c806316e23104146021575b600080fd5b60d460048036036020811015603557600080fd5b8101908080359060200190640100000000811115605157600080fd5b820183602082011115606257600080fd5b80359060200191846001830284011164010000000083111715608357600080fd5b91908080601f016020809104026020016040519081016040528093929190818152602001838380828437600081840152601f19601f82011690508083019250505050505050919291929050505060ee565b604051808215151515815260200191505060405180910390f35b60006001905091905056fea2646970667358221220ba584a610edfb96e90f568da9c9ffb7ddd191f154bdb55332c9773c5ac901faa64736f6c63430006010033608060405234801561001057600080fd5b5060006100216100f360201b60201c565b9050806000806101000a81548173ffffffffffffffffffffffffffffffffffffffff021916908373ffffffffffffffffffffffffffffffffffffffff1602179055508073ffffffffffffffffffffffffffffffffffffffff16600073ffffffffffffffffffffffffffffffffffffffff167f8be0079c531659141344cd1fd0a4f28419497f9722a3daafe3b4186f6b6457e060405160405180910390a350604051806060016040528060388152602001610c4d60389139600290805190602001906100ed9291906100fb565b506101a0565b600033905090565b828054600181600116156101000203166002900490600052602060002090601f016020900481019282601f1061013c57805160ff191683800117855561016a565b8280016001018555821561016a579182015b8281111561016957825182559160200191906001019061014e565b5b509050610177919061017b565b5090565b61019d91905b80821115610199576000816000905550600101610181565b5090565b90565b610a9e806101af6000396000f3fe608060405234801561001057600080fd5b50600436106100625760003560e01c80636aa68e4b14610067578063715018a61461019b5780638da5cb5b146101a5578063a7a38f0b146101ef578063f2fde38b14610296578063fbfc2d65146102da575b600080fd5b6101206004803603602081101561007d57600080fd5b810190808035906020019064010000000081111561009a57600080fd5b8201836020820111156100ac57600080fd5b803590602001918460018302840111640100000000831117156100ce57600080fd5b91908080601f016020809104026020016040519081016040528093929190818152602001838380828437600081840152601f19601f82011690508083019250505050505050919291929050505061035d565b6040518080602001828103825283818151815260200191508051906020019080838360005b83811015610160578082015181840152602081019050610145565b50505050905090810190601f16801561018d5780820380516001836020036101000a031916815260200191505b509250505060405180910390f35b6101a3610480565b005b6101ad610608565b604051808273ffffffffffffffffffffffffffffffffffffffff1673ffffffffffffffffffffffffffffffffffffffff16815260200191505060405180910390f35b61021b6004803603602081101561020557600080fd5b8101908080359060200190929190505050610631565b6040518080602001828103825283818151815260200191508051906020019080838360005b8381101561025b578082015181840152602081019050610240565b50505050905090810190601f1680156102885780820380516001836020036101000a031916815260200191505b509250505060405180910390f35b6102d8600480360360208110156102ac57600080fd5b81019080803573ffffffffffffffffffffffffffffffffffffffff1690602001909291905050506106ea565b005b6102e26108f7565b6040518080602001828103825283818151815260200191508051906020019080838360005b83811015610322578082015181840152602081019050610307565b50505050905090810190601f16801561034f5780820380516001836020036101000a031916815260200191505b509250505060405180910390f35b6060610367610995565b73ffffffffffffffffffffffffffffffffffffffff166000809054906101000a900473ffffffffffffffffffffffffffffffffffffffff1673ffffffffffffffffffffffffffffffffffffffff1614610428576040517f08c379a00000000000000000000000000000000000000000000000000000000081526004018080602001828103825260208152602001807f4f776e61626c653a2063616c6c6572206973206e6f7420746865206f776e657281525060200191505060405180910390fd5b60018290806001815401808255809150506001900390600052602060002001600090919091909150908051906020019061046392919061099d565b50816002908051906020019061047a92919061099d565b50919050565b610488610995565b73ffffffffffffffffffffffffffffffffffffffff166000809054906101000a900473ffffffffffffffffffffffffffffffffffffffff1673ffffffffffffffffffffffffffffffffffffffff1614610549576040517f08c379a00000000000000000000000000000000000000000000000000000000081526004018080602001828103825260208152602001807f4f776e61626c653a2063616c6c6572206973206e6f7420746865206f776e657281525060200191505060405180910390fd5b600073ffffffffffffffffffffffffffffffffffffffff166000809054906101000a900473ffffffffffffffffffffffffffffffffffffffff1673ffffffffffffffffffffffffffffffffffffffff167f8be0079c531659141344cd1fd0a4f28419497f9722a3daafe3b4186f6b6457e060405160405180910390a360008060006101000a81548173ffffffffffffffffffffffffffffffffffffffff021916908373ffffffffffffffffffffffffffffffffffffffff160217905550565b60008060009054906101000a900473ffffffffffffffffffffffffffffffffffffffff16905090565b6001818154811061063e57fe5b906000526020600020016000915090508054600181600116156101000203166002900480601f0160208091040260200160405190810160405280929190818152602001828054600181600116156101000203166002900480156106e25780601f106106b7576101008083540402835291602001916106e2565b820191906000526020600020905b8154815290600101906020018083116106c557829003601f168201915b505050505081565b6106f2610995565b73ffffffffffffffffffffffffffffffffffffffff166000809054906101000a900473ffffffffffffffffffffffffffffffffffffffff1673ffffffffffffffffffffffffffffffffffffffff16146107b3576040517f08c379a00000000000000000000000000000000000000000000000000000000081526004018080602001828103825260208152602001807f4f776e61626c653a2063616c6c6572206973206e6f7420746865206f776e657281525060200191505060405180910390fd5b600073ffffffffffffffffffffffffffffffffffffffff168173ffffffffffffffffffffffffffffffffffffffff161415610839576040517f08c379a0000000000000000000000000000000000000000000000000000000008152600401808060200182810382526026815260200180610a436026913960400191505060405180910390fd5b8073ffffffffffffffffffffffffffffffffffffffff166000809054906101000a900473ffffffffffffffffffffffffffffffffffffffff1673ffffffffffffffffffffffffffffffffffffffff167f8be0079c531659141344cd1fd0a4f28419497f9722a3daafe3b4186f6b6457e060405160405180910390a3806000806101000a81548173ffffffffffffffffffffffffffffffffffffffff021916908373ffffffffffffffffffffffffffffffffffffffff16021790555050565b60028054600181600116156101000203166002900480601f01602080910402602001604051908101604052809291908181526020018280546001816001161561010002031660029004801561098d5780601f106109625761010080835404028352916020019161098d565b820191906000526020600020905b81548152906001019060200180831161097057829003601f168201915b505050505081565b600033905090565b828054600181600116156101000203166002900490600052602060002090601f016020900481019282601f106109de57805160ff1916838001178555610a0c565b82800160010185558215610a0c579182015b82811115610a0b5782518255916020019190600101906109f0565b5b509050610a199190610a1d565b5090565b610a3f91905b80821115610a3b576000816000905550600101610a23565b5090565b9056fe4f776e61626c653a206e6577206f776e657220697320746865207a65726f2061646472657373a264697066735822122014797e6dcacfe31ce7464b453f7ab843190e63d2c847337b602d985b45b5f06964736f6c63430006010033726e62716b626e722f70707070707070702f382f382f382f382f50505050505050502f524e42514b424e522077204b516b71202d20302031",
  "source": "\r\npragma solidity >=0.4.22 <0.8.0;\r\n\r\nimport './GameEngine.sol';\r\nimport './BoardState.sol';\r\n\r\n/// @title A Class representing a chess game\r\n/// @author Jaan Smith\r\n/// @notice This class does not implement all chess functionality, currently an unoptimised Stub\r\n/// @dev A lot of the basic functionality of chess is missing here, \r\n/// experimentation required to see if this can be done on chain, perhaps oracle nodes instead?\r\ncontract ChessGame {\r\n\r\n    BoardState boardState;\r\n    GameEngine gameEngine;\r\n\r\n    //A list of players. Odd numbers are black, even numbers are white.\r\n    address[] public whitePlayers;\r\n    address[] public blackPlayers;\r\n\r\n    //Mapping of which team an address is on\r\n    //False = White, True = Black\r\n    mapping(address => bool) public team;\r\n    //Time limit on each move, measured in block height (Making this an estimate)\r\n    uint public blockFactor;\r\n    //False = White, True = Black\r\n    bool public turn;\r\n    bool public isGameOver;\r\n    bool public winner;\r\n    uint public lastMove;\r\n    \r\n    uint numberOfMoves;\r\n\r\n    //Proposed Moves\r\n    mapping(address => string) proposedMoves;\r\n    //Count of votes\r\n    uint voteCount;\r\n\r\n\r\n/// @author Jaan Smith\r\n/// @notice Constructor for the ChessGame contract\r\n/// Maximum 4 players per team, initialises external contracts\r\n/// @param _whitePlayers is an array of addresses representing the players for the white pieces\r\n/// @param _blackPlayers is an array of addresses representing the players for the black pieces\r\n/// @param _blockFactor represents the amount of blocks that can pass before timing a team out\r\n    constructor (address[] memory _whitePlayers, address[] memory _blackPlayers, uint _blockFactor) public {\r\n        require(_whitePlayers.length < 4, \"Maximum 4 players each team\");\r\n        require(_blackPlayers.length < 4, \"Maximum 4 players each team\");\r\n        whitePlayers = _whitePlayers;\r\n        blackPlayers = _blackPlayers;\r\n        blockFactor = _blockFactor;\r\n        turn = false;\r\n        isGameOver = false;\r\n        winner = false;\r\n        lastMove = block.number;\r\n        gameEngine = new GameEngine();\r\n        boardState = new BoardState();\r\n        voteCount = 0;\r\n        populateTeamMapping(whitePlayers, false);\r\n        populateTeamMapping(blackPlayers, true);\r\n    }\r\n\r\n    /// @author Jaan Smith\r\n    /// @notice Returns the object representing the current team's players\r\n    /// @dev May be some bugs lurking in this to do with block validation\r\n    /// @return turnString A string representing which colour's turn it is, and The array containing the current team's players whos turn it is\r\n    function getCurrentTeamsPlayers() public view returns(string memory turnString, address[] memory players)\r\n    {\r\n        if(turn == false) return ( \"White\", whitePlayers );\r\n        else return ( \"Black\", blackPlayers );\r\n    }\r\n\r\n    /// @author Jaan Smith\r\n    /// @notice Populates the address->boolean mapping with the address of a particular team\r\n    /// @param players is a supplied array of addresses representing the team's players\r\n    /// @param teamFlag is a boolean representing the team, white = false, black = true\r\n    function populateTeamMapping(address[] memory players, bool teamFlag) internal {\r\n        for(uint i = 0; i < players.length; i++) {\r\n            team[players[i]] = teamFlag;\r\n        }\r\n    }\r\n    \r\n    /// @author Jaan Smith\r\n    /// @notice Internal function used to change game state to finished\r\n    function gameOver() internal {\r\n        isGameOver = true;\r\n    }\r\n\r\n    /// @author Jaan Smith\r\n    /// @notice Provides a proposed move from a particular address, also triggers end of turn and other logic\r\n    /// Depending on the state of other variables (e.g. can end a turn based on total votes, or block time)\r\n    /// @param _proposedMove is the FEN representation of the new board state should this turn become validated\r\n    /// @dev currently takes any string as on-chain validation is an extension that was not implemented\r\n    function voteTurn(string memory _proposedMove) public {\r\n\r\n        require(isGameOver == false, \"Game is over, no more voting for turns\");\r\n        require(team[msg.sender] == turn, \"Not your turn, sorry\" ); // TODO  - Logic that says OR time has expired\r\n        if(lastMove + blockFactor <= block.number && numberOfMoves == 0) {\r\n            gameOver();\r\n            winner = !turn;\r\n        }\r\n        require(gameEngine.evaluateMove(_proposedMove) == true);\r\n        proposedMoves[msg.sender] = _proposedMove;\r\n        voteCount++;\r\n        isTurnOver();\r\n    }\r\n\r\n    /// @author Jaan Smith\r\n    /// @notice Internal function for checking if the chess turn should be ended\r\n    function isTurnOver() internal {\r\n        uint playerCount;\r\n        if(turn) {\r\n            playerCount = blackPlayers.length;\r\n        }\r\n        else {\r\n            playerCount = whitePlayers.length;\r\n        }\r\n\r\n        if(voteCount >= playerCount) {\r\n            makeTurn();\r\n        }\r\n    }\r\n\r\n    /// @author Jaan Smith\r\n    /// @notice Chooses a random turn from the list of proposed turns, changes board state, switches teams\r\n    function makeTurn() internal {\r\n        uint start;\r\n        address[] memory playersArray;\r\n        if(turn == false) {\r\n            playersArray = whitePlayers;\r\n        } else {\r\n            playersArray = blackPlayers;\r\n        }\r\n        string[] memory votes = new string[](voteCount+1);\r\n        uint counter = 0;\r\n        for(uint i = start; i < voteCount; i++) {\r\n            votes[counter] = proposedMoves[playersArray[i]];\r\n            proposedMoves[playersArray[i]] = \"\";\r\n            counter++;\r\n        }\r\n        uint randomNumber;\r\n        if(voteCount == 1) {\r\n            randomNumber = 0;\r\n        } else {\r\n            randomNumber = uint(keccak256(abi.encodePacked(blockhash(block.number-1)))) % voteCount;\r\n        }\r\n        boardState.newBoardState(votes[randomNumber]);\r\n        voteCount = 0;\r\n        turn = !turn;\r\n    }\r\n\r\n    /// @author Jaan Smith\r\n    /// @notice Returns the FEN representation of the current chess board, from an external contract\r\n    /// @return FEN string of the board state\r\n    function getBoardState() public view returns (string memory FEN) {\r\n        return boardState.FEN();\r\n    }\r\n\r\n}",
  "sourcePath": "E:\\dev\\Consensys Course\\EtherChess\\contracts\\ChessGame.sol",
  "compiler": {
    "name": "solc",
    "version": "0.6.1+commit.e6f7d5a4.Emscripten.clang"
  },
  "schemaVersion": "3.2.5",
  "updatedAt": "2020-12-14T16:25:49.069Z",
  "networkType": "ethereum",
  "devdoc": {
    "author": "Jaan Smith",
    "details": "A lot of the basic functionality of chess is missing here,  experimentation required to see if this can be done on chain, perhaps oracle nodes instead?",
    "methods": {
      "constructor": {
        "author": "Jaan Smith",
        "params": {
          "_blackPlayers": "is an array of addresses representing the players for the black pieces",
          "_blockFactor": "represents the amount of blocks that can pass before timing a team out",
          "_whitePlayers": "is an array of addresses representing the players for the white pieces"
        }
      },
      "getBoardState()": {
        "author": "Jaan Smith",
        "returns": {
          "FEN": "string of the board state"
        }
      },
      "getCurrentTeamsPlayers()": {
        "author": "Jaan Smith",
        "details": "May be some bugs lurking in this to do with block validation",
        "returns": {
          "turnString": "A string representing which colour's turn it is, and The array containing the current team's players whos turn it is"
        }
      },
      "voteTurn(string)": {
        "author": "Jaan Smith",
        "details": "currently takes any string as on-chain validation is an extension that was not implemented",
        "params": {
          "_proposedMove": "is the FEN representation of the new board state should this turn become validated"
        }
      }
    },
    "title": "A Class representing a chess game"
  },
  "userdoc": {
    "methods": {
      "constructor": "Constructor for the ChessGame contract Maximum 4 players per team, initialises external contracts",
      "getBoardState()": {
        "notice": "Returns the FEN representation of the current chess board, from an external contract"
      },
      "getCurrentTeamsPlayers()": {
        "notice": "Returns the object representing the current team's players"
      },
      "voteTurn(string)": {
        "notice": "Provides a proposed move from a particular address, also triggers end of turn and other logic Depending on the state of other variables (e.g. can end a turn based on total votes, or block time)"
      }
    },
    "notice": "This class does not implement all chess functionality, currently an unoptimised Stub"
  }
}