{
  "contractName": "ChessGame",
  "abi": [
    {
      "inputs": [
        {
          "internalType": "address[]",
          "name": "_players",
          "type": "address[]"
        },
        {
          "internalType": "uint256",
          "name": "_blockFactor",
          "type": "uint256"
        }
      ],
      "stateMutability": "nonpayable",
      "type": "constructor"
    },
    {
      "inputs": [],
      "name": "blockFactor",
      "outputs": [
        {
          "internalType": "uint256",
          "name": "",
          "type": "uint256"
        }
      ],
      "stateMutability": "view",
      "type": "function"
    },
    {
      "inputs": [],
      "name": "isGameOver",
      "outputs": [
        {
          "internalType": "bool",
          "name": "",
          "type": "bool"
        }
      ],
      "stateMutability": "view",
      "type": "function"
    },
    {
      "inputs": [],
      "name": "lastMove",
      "outputs": [
        {
          "internalType": "uint256",
          "name": "",
          "type": "uint256"
        }
      ],
      "stateMutability": "view",
      "type": "function"
    },
    {
      "inputs": [
        {
          "internalType": "uint256",
          "name": "",
          "type": "uint256"
        }
      ],
      "name": "players",
      "outputs": [
        {
          "internalType": "address",
          "name": "",
          "type": "address"
        }
      ],
      "stateMutability": "view",
      "type": "function"
    },
    {
      "inputs": [
        {
          "internalType": "address",
          "name": "",
          "type": "address"
        }
      ],
      "name": "team",
      "outputs": [
        {
          "internalType": "bool",
          "name": "",
          "type": "bool"
        }
      ],
      "stateMutability": "view",
      "type": "function"
    },
    {
      "inputs": [],
      "name": "turn",
      "outputs": [
        {
          "internalType": "bool",
          "name": "",
          "type": "bool"
        }
      ],
      "stateMutability": "view",
      "type": "function"
    },
    {
      "inputs": [],
      "name": "winner",
      "outputs": [
        {
          "internalType": "bool",
          "name": "",
          "type": "bool"
        }
      ],
      "stateMutability": "view",
      "type": "function"
    },
    {
      "inputs": [
        {
          "internalType": "string",
          "name": "_proposedMove",
          "type": "string"
        }
      ],
      "name": "voteTurn",
      "outputs": [],
      "stateMutability": "nonpayable",
      "type": "function"
    }
  ],
  "bytecode": "0x608060405234801561001057600080fd5b5060405161186e38038061186e8339818101604052604081101561003357600080fd5b810190808051604051939291908464010000000082111561005357600080fd5b8382019150602082018581111561006957600080fd5b825186602082028301116401000000008211171561008657600080fd5b8083526020830192505050908051906020019060200280838360005b838110156100bd5780820151818401526020810190506100a2565b505050509050016040526020018051906020019092919050505081600290805190602001906100ed929190610225565b50806004819055506000600560006101000a81548160ff0219169083151502179055506000600560016101000a81548160ff0219169083151502179055506000600560026101000a81548160ff02191690831515021790555043600681905550604051610159906102af565b604051809103906000f080158015610175573d6000803e3d6000fd5b50600160006101000a81548173ffffffffffffffffffffffffffffffffffffffff021916908373ffffffffffffffffffffffffffffffffffffffff1602179055506040516101c2906102bc565b604051809103906000f0801580156101de573d6000803e3d6000fd5b506000806101000a81548173ffffffffffffffffffffffffffffffffffffffff021916908373ffffffffffffffffffffffffffffffffffffffff160217905550505061030c565b82805482825590600052602060002090810192821561029e579160200282015b8281111561029d5782518260006101000a81548173ffffffffffffffffffffffffffffffffffffffff021916908373ffffffffffffffffffffffffffffffffffffffff16021790555091602001919060010190610245565b5b5090506102ab91906102c9565b5090565b61014f80610a9a83390190565b610c8580610be983390190565b61030991905b8082111561030557600081816101000a81549073ffffffffffffffffffffffffffffffffffffffff0219169055506001016102cf565b5090565b90565b61077f8061031b6000396000f3fe608060405234801561001057600080fd5b50600436106100885760003560e01c80638c44da1c1161005b5780638c44da1c1461014b578063a01e2f2314610206578063dfbf53ae14610224578063f71d96cb1461024657610088565b80630e001b381461008d5780630e04a7d8146100ab5780633de94925146100cd5780638b29990314610129575b600080fd5b6100956102b4565b6040518082815260200191505060405180910390f35b6100b36102ba565b604051808215151515815260200191505060405180910390f35b61010f600480360360208110156100e357600080fd5b81019080803573ffffffffffffffffffffffffffffffffffffffff1690602001909291905050506102cd565b604051808215151515815260200191505060405180910390f35b6101316102ed565b604051808215151515815260200191505060405180910390f35b6102046004803603602081101561016157600080fd5b810190808035906020019064010000000081111561017e57600080fd5b82018360208201111561019057600080fd5b803590602001918460018302840111640100000000831117156101b257600080fd5b91908080601f016020809104026020016040519081016040528093929190818152602001838380828437600081840152601f19601f820116905080830192505050505050509192919290505050610300565b005b61020e61060c565b6040518082815260200191505060405180910390f35b61022c610612565b604051808215151515815260200191505060405180910390f35b6102726004803603602081101561025c57600080fd5b8101908080359060200190929190505050610625565b604051808273ffffffffffffffffffffffffffffffffffffffff1673ffffffffffffffffffffffffffffffffffffffff16815260200191505060405180910390f35b60065481565b600560019054906101000a900460ff1681565b60036020528060005260406000206000915054906101000a900460ff1681565b600560009054906101000a900460ff1681565b60001515600560019054906101000a900460ff1615151461036c576040517f08c379a00000000000000000000000000000000000000000000000000000000081526004018080602001828103825260268152602001806107246026913960400191505060405180910390fd5b600560009054906101000a900460ff161515600360003373ffffffffffffffffffffffffffffffffffffffff1673ffffffffffffffffffffffffffffffffffffffff16815260200190815260200160002060009054906101000a900460ff16151514610440576040517f08c379a00000000000000000000000000000000000000000000000000000000081526004018080602001828103825260148152602001807f4e6f7420796f7572207475726e2c20736f72727900000000000000000000000081525060200191505060405180910390fd5b43600454600654011115801561045857506000600754145b1561049057610465610661565b600560009054906101000a900460ff1615600560026101000a81548160ff0219169083151502179055505b60011515600160009054906101000a900473ffffffffffffffffffffffffffffffffffffffff1673ffffffffffffffffffffffffffffffffffffffff166316e23104836040518263ffffffff1660e01b81526004018080602001828103825283818151815260200191508051906020019080838360005b83811015610522578082015181840152602081019050610507565b50505050905090810190601f16801561054f5780820380516001836020036101000a031916815260200191505b5092505050602060405180830381600087803b15801561056e57600080fd5b505af1158015610582573d6000803e3d6000fd5b505050506040513d602081101561059857600080fd5b81019080805190602001909291905050501515146105b557600080fd5b80600860003373ffffffffffffffffffffffffffffffffffffffff1673ffffffffffffffffffffffffffffffffffffffff168152602001908152602001600020908051906020019061060892919061067e565b5050565b60045481565b600560029054906101000a900460ff1681565b6002818154811061063257fe5b906000526020600020016000915054906101000a900473ffffffffffffffffffffffffffffffffffffffff1681565b6001600560016101000a81548160ff021916908315150217905550565b828054600181600116156101000203166002900490600052602060002090601f016020900481019282601f106106bf57805160ff19168380011785556106ed565b828001600101855582156106ed579182015b828111156106ec5782518255916020019190600101906106d1565b5b5090506106fa91906106fe565b5090565b61072091905b8082111561071c576000816000905550600101610704565b5090565b9056fe47616d65206973206f7665722c206e6f206d6f726520766f74696e6720666f72207475726e73a264697066735822122056b3adf8cdb94253b6fa2c4969d10fdfdbfc3976036933d1c4d01b3a2f710d2d64736f6c63430006010033608060405234801561001057600080fd5b5061012f806100206000396000f3fe608060405260043610601c5760003560e01c806316e23104146021575b600080fd5b60d460048036036020811015603557600080fd5b8101908080359060200190640100000000811115605157600080fd5b820183602082011115606257600080fd5b80359060200191846001830284011164010000000083111715608357600080fd5b91908080601f016020809104026020016040519081016040528093929190818152602001838380828437600081840152601f19601f82011690508083019250505050505050919291929050505060ee565b604051808215151515815260200191505060405180910390f35b60006001905091905056fea2646970667358221220461f76442ae2792610521125885cfec9f105a8be20c628a6008217b36d0b187c64736f6c63430006010033608060405234801561001057600080fd5b5060006100216100f360201b60201c565b9050806000806101000a81548173ffffffffffffffffffffffffffffffffffffffff021916908373ffffffffffffffffffffffffffffffffffffffff1602179055508073ffffffffffffffffffffffffffffffffffffffff16600073ffffffffffffffffffffffffffffffffffffffff167f8be0079c531659141344cd1fd0a4f28419497f9722a3daafe3b4186f6b6457e060405160405180910390a350604051806060016040528060388152602001610c4d60389139600290805190602001906100ed9291906100fb565b506101a0565b600033905090565b828054600181600116156101000203166002900490600052602060002090601f016020900481019282601f1061013c57805160ff191683800117855561016a565b8280016001018555821561016a579182015b8281111561016957825182559160200191906001019061014e565b5b509050610177919061017b565b5090565b61019d91905b80821115610199576000816000905550600101610181565b5090565b90565b610a9e806101af6000396000f3fe608060405234801561001057600080fd5b50600436106100625760003560e01c80636aa68e4b14610067578063715018a61461019b5780638da5cb5b146101a5578063a7a38f0b146101ef578063f2fde38b14610296578063fbfc2d65146102da575b600080fd5b6101206004803603602081101561007d57600080fd5b810190808035906020019064010000000081111561009a57600080fd5b8201836020820111156100ac57600080fd5b803590602001918460018302840111640100000000831117156100ce57600080fd5b91908080601f016020809104026020016040519081016040528093929190818152602001838380828437600081840152601f19601f82011690508083019250505050505050919291929050505061035d565b6040518080602001828103825283818151815260200191508051906020019080838360005b83811015610160578082015181840152602081019050610145565b50505050905090810190601f16801561018d5780820380516001836020036101000a031916815260200191505b509250505060405180910390f35b6101a3610480565b005b6101ad610608565b604051808273ffffffffffffffffffffffffffffffffffffffff1673ffffffffffffffffffffffffffffffffffffffff16815260200191505060405180910390f35b61021b6004803603602081101561020557600080fd5b8101908080359060200190929190505050610631565b6040518080602001828103825283818151815260200191508051906020019080838360005b8381101561025b578082015181840152602081019050610240565b50505050905090810190601f1680156102885780820380516001836020036101000a031916815260200191505b509250505060405180910390f35b6102d8600480360360208110156102ac57600080fd5b81019080803573ffffffffffffffffffffffffffffffffffffffff1690602001909291905050506106ea565b005b6102e26108f7565b6040518080602001828103825283818151815260200191508051906020019080838360005b83811015610322578082015181840152602081019050610307565b50505050905090810190601f16801561034f5780820380516001836020036101000a031916815260200191505b509250505060405180910390f35b6060610367610995565b73ffffffffffffffffffffffffffffffffffffffff166000809054906101000a900473ffffffffffffffffffffffffffffffffffffffff1673ffffffffffffffffffffffffffffffffffffffff1614610428576040517f08c379a00000000000000000000000000000000000000000000000000000000081526004018080602001828103825260208152602001807f4f776e61626c653a2063616c6c6572206973206e6f7420746865206f776e657281525060200191505060405180910390fd5b60018290806001815401808255809150506001900390600052602060002001600090919091909150908051906020019061046392919061099d565b50816002908051906020019061047a92919061099d565b50919050565b610488610995565b73ffffffffffffffffffffffffffffffffffffffff166000809054906101000a900473ffffffffffffffffffffffffffffffffffffffff1673ffffffffffffffffffffffffffffffffffffffff1614610549576040517f08c379a00000000000000000000000000000000000000000000000000000000081526004018080602001828103825260208152602001807f4f776e61626c653a2063616c6c6572206973206e6f7420746865206f776e657281525060200191505060405180910390fd5b600073ffffffffffffffffffffffffffffffffffffffff166000809054906101000a900473ffffffffffffffffffffffffffffffffffffffff1673ffffffffffffffffffffffffffffffffffffffff167f8be0079c531659141344cd1fd0a4f28419497f9722a3daafe3b4186f6b6457e060405160405180910390a360008060006101000a81548173ffffffffffffffffffffffffffffffffffffffff021916908373ffffffffffffffffffffffffffffffffffffffff160217905550565b60008060009054906101000a900473ffffffffffffffffffffffffffffffffffffffff16905090565b6001818154811061063e57fe5b906000526020600020016000915090508054600181600116156101000203166002900480601f0160208091040260200160405190810160405280929190818152602001828054600181600116156101000203166002900480156106e25780601f106106b7576101008083540402835291602001916106e2565b820191906000526020600020905b8154815290600101906020018083116106c557829003601f168201915b505050505081565b6106f2610995565b73ffffffffffffffffffffffffffffffffffffffff166000809054906101000a900473ffffffffffffffffffffffffffffffffffffffff1673ffffffffffffffffffffffffffffffffffffffff16146107b3576040517f08c379a00000000000000000000000000000000000000000000000000000000081526004018080602001828103825260208152602001807f4f776e61626c653a2063616c6c6572206973206e6f7420746865206f776e657281525060200191505060405180910390fd5b600073ffffffffffffffffffffffffffffffffffffffff168173ffffffffffffffffffffffffffffffffffffffff161415610839576040517f08c379a0000000000000000000000000000000000000000000000000000000008152600401808060200182810382526026815260200180610a436026913960400191505060405180910390fd5b8073ffffffffffffffffffffffffffffffffffffffff166000809054906101000a900473ffffffffffffffffffffffffffffffffffffffff1673ffffffffffffffffffffffffffffffffffffffff167f8be0079c531659141344cd1fd0a4f28419497f9722a3daafe3b4186f6b6457e060405160405180910390a3806000806101000a81548173ffffffffffffffffffffffffffffffffffffffff021916908373ffffffffffffffffffffffffffffffffffffffff16021790555050565b60028054600181600116156101000203166002900480601f01602080910402602001604051908101604052809291908181526020018280546001816001161561010002031660029004801561098d5780601f106109625761010080835404028352916020019161098d565b820191906000526020600020905b81548152906001019060200180831161097057829003601f168201915b505050505081565b600033905090565b828054600181600116156101000203166002900490600052602060002090601f016020900481019282601f106109de57805160ff1916838001178555610a0c565b82800160010185558215610a0c579182015b82811115610a0b5782518255916020019190600101906109f0565b5b509050610a199190610a1d565b5090565b610a3f91905b80821115610a3b576000816000905550600101610a23565b5090565b9056fe4f776e61626c653a206e6577206f776e657220697320746865207a65726f2061646472657373a2646970667358221220acbea9d1d134a4436f5ea86bcbbaa60e450852bb6bc750b1ab9d30e05b0f216a64736f6c63430006010033726e62716b626e722f70707070707070702f382f382f382f382f50505050505050502f524e42514b424e522077204b516b71202d20302031",
  "source": "\r\npragma solidity >=0.4.22 <0.8.0;\r\n\r\nimport './GameEngine.sol';\r\nimport './BoardState.sol';\r\n\r\ncontract ChessGame {\r\n\r\n    BoardState boardState;\r\n    GameEngine gameEngine;\r\n\r\n    //A list of players. Odd numbers are black, even numbers are white.\r\n    address[] public players;\r\n\r\n    //Mapping of which team an address is on\r\n    //False = White, True = Black\r\n    mapping(address => bool) public team;\r\n    //Time limit on each move, measured in block height (Making this an estimate)\r\n    uint public blockFactor;\r\n    //False = White, True = Black\r\n    bool public turn;\r\n    bool public isGameOver;\r\n    bool public winner;\r\n    uint public lastMove;\r\n    \r\n    uint numberOfMoves;\r\n\r\n    //Proposed Moves\r\n    mapping(address => string) proposedMoves;\r\n\r\n    constructor (address[] memory _players, uint _blockFactor) public {\r\n        players = _players;\r\n        blockFactor = _blockFactor;\r\n        turn = false;\r\n        isGameOver = false;\r\n        winner = false;\r\n        lastMove = block.number;\r\n        gameEngine = new GameEngine();\r\n        boardState = new BoardState();\r\n    }\r\n    \r\n    function gameOver() internal {\r\n        isGameOver = true;\r\n    }\r\n\r\n    function voteTurn(string memory _proposedMove) public {\r\n        //TODO Require only participants (and the correct team) to be able to vote\r\n\r\n        require(isGameOver == false, \"Game is over, no more voting for turns\");\r\n        require(team[msg.sender] == turn, \"Not your turn, sorry\" ); // TODO  - Logic that says OR time has expired\r\n        if(lastMove + blockFactor <= block.number && numberOfMoves == 0) {\r\n            gameOver();\r\n            winner = !turn;\r\n        }\r\n        require(gameEngine.evaluateMove(_proposedMove) == true);\r\n        proposedMoves[msg.sender] = _proposedMove;\r\n    }\r\n\r\n}",
  "sourcePath": "E:\\dev\\Consensys Course\\EtherChess\\contracts\\ChessGame.sol",
  "compiler": {
    "name": "solc",
    "version": "0.6.1+commit.e6f7d5a4.Emscripten.clang"
  },
  "schemaVersion": "3.2.5",
  "updatedAt": "2020-11-30T18:38:24.517Z",
  "devdoc": {
    "methods": {}
  },
  "userdoc": {
    "methods": {}
  }
}