{
  "contractName": "GameCreator",
  "abi": [
    {
      "inputs": [
        {
          "internalType": "uint256",
          "name": "",
          "type": "uint256"
        }
      ],
      "name": "games",
      "outputs": [
        {
          "internalType": "address",
          "name": "",
          "type": "address"
        }
      ],
      "stateMutability": "view",
      "type": "function",
      "constant": true
    },
    {
      "inputs": [
        {
          "internalType": "address",
          "name": "",
          "type": "address"
        }
      ],
      "name": "latestGame",
      "outputs": [
        {
          "internalType": "address",
          "name": "",
          "type": "address"
        }
      ],
      "stateMutability": "view",
      "type": "function",
      "constant": true
    },
    {
      "inputs": [
        {
          "internalType": "address[]",
          "name": "_whitePlayers",
          "type": "address[]"
        },
        {
          "internalType": "address[]",
          "name": "_blackPlayers",
          "type": "address[]"
        },
        {
          "internalType": "uint256",
          "name": "_blockFactor",
          "type": "uint256"
        }
      ],
      "name": "newGame",
      "outputs": [
        {
          "internalType": "address",
          "name": "newContract",
          "type": "address"
        }
      ],
      "stateMutability": "nonpayable",
      "type": "function"
    },
    {
      "inputs": [],
      "name": "getGamesSize",
      "outputs": [
        {
          "internalType": "uint256",
          "name": "size",
          "type": "uint256"
        }
      ],
      "stateMutability": "view",
      "type": "function",
      "constant": true
    }
  ],
  "bytecode": "0x608060405234801561001057600080fd5b50612807806100206000396000f3fe608060405234801561001057600080fd5b506004361061004c5760003560e01c8063117a5b901461005157806351583ac8146100bf578063a28b796514610255578063b553910d14610273575b600080fd5b61007d6004803603602081101561006757600080fd5b81019080803590602001909291905050506102f7565b604051808273ffffffffffffffffffffffffffffffffffffffff1673ffffffffffffffffffffffffffffffffffffffff16815260200191505060405180910390f35b610213600480360360608110156100d557600080fd5b81019080803590602001906401000000008111156100f257600080fd5b82018360208201111561010457600080fd5b8035906020019184602083028401116401000000008311171561012657600080fd5b919080806020026020016040519081016040528093929190818152602001838360200280828437600081840152601f19601f8201169050808301925050505050505091929192908035906020019064010000000081111561018657600080fd5b82018360208201111561019857600080fd5b803590602001918460208302840111640100000000831117156101ba57600080fd5b919080806020026020016040519081016040528093929190818152602001838360200280828437600081840152601f19601f82011690508083019250505050505050919291929080359060200190929190505050610333565b604051808273ffffffffffffffffffffffffffffffffffffffff1673ffffffffffffffffffffffffffffffffffffffff16815260200191505060405180910390f35b61025d6104ea565b6040518082815260200191505060405180910390f35b6102b56004803603602081101561028957600080fd5b81019080803573ffffffffffffffffffffffffffffffffffffffff1690602001909291905050506104f6565b604051808273ffffffffffffffffffffffffffffffffffffffff1673ffffffffffffffffffffffffffffffffffffffff16815260200191505060405180910390f35b6000818154811061030457fe5b906000526020600020016000915054906101000a900473ffffffffffffffffffffffffffffffffffffffff1681565b60008084848460405161034590610529565b808060200180602001848152602001838103835286818151815260200191508051906020019060200280838360005b8381101561038f578082015181840152602081019050610374565b50505050905001838103825285818151815260200191508051906020019060200280838360005b838110156103d15780820151818401526020810190506103b6565b5050505090500195505050505050604051809103906000f0801580156103fb573d6000803e3d6000fd5b5090506000819080600181540180825580915050600190039060005260206000200160009091909190916101000a81548173ffffffffffffffffffffffffffffffffffffffff021916908373ffffffffffffffffffffffffffffffffffffffff16021790555080600160003373ffffffffffffffffffffffffffffffffffffffff1673ffffffffffffffffffffffffffffffffffffffff16815260200190815260200160002060006101000a81548173ffffffffffffffffffffffffffffffffffffffff021916908373ffffffffffffffffffffffffffffffffffffffff160217905550809150509392505050565b60008080549050905090565b60016020528060005260406000206000915054906101000a900473ffffffffffffffffffffffffffffffffffffffff1681565b61229b806105378339019056fe60806040523480156200001157600080fd5b506040516200229b3803806200229b833981810160405260608110156200003757600080fd5b81019080805160405193929190846401000000008211156200005857600080fd5b838201915060208201858111156200006f57600080fd5b82518660208202830111640100000000821117156200008d57600080fd5b8083526020830192505050908051906020019060200280838360005b83811015620000c6578082015181840152602081019050620000a9565b5050505090500160405260200180516040519392919084640100000000821115620000f057600080fd5b838201915060208201858111156200010757600080fd5b82518660208202830111640100000000821117156200012557600080fd5b8083526020830192505050908051906020019060200280838360005b838110156200015e57808201518184015260208101905062000141565b50505050905001604052602001805190602001909291905050506004835110620001f0576040517f08c379a000000000000000000000000000000000000000000000000000000000815260040180806020018281038252601b8152602001807f4d6178696d756d203420706c61796572732065616368207465616d000000000081525060200191505060405180910390fd5b600482511062000268576040517f08c379a000000000000000000000000000000000000000000000000000000000815260040180806020018281038252601b8152602001807f4d6178696d756d203420706c61796572732065616368207465616d000000000081525060200191505060405180910390fd5b826002908051906020019062000280929190620003e1565b50816003908051906020019062000299929190620003e1565b50806005819055506000600660006101000a81548160ff0219169083151502179055506000600660016101000a81548160ff0219169083151502179055506000600660026101000a81548160ff02191690831515021790555043600781905550604051620003079062000470565b604051809103906000f08015801562000324573d6000803e3d6000fd5b50600160006101000a81548173ffffffffffffffffffffffffffffffffffffffff021916908373ffffffffffffffffffffffffffffffffffffffff16021790555060405162000373906200047e565b604051809103906000f08015801562000390573d6000803e3d6000fd5b506000806101000a81548173ffffffffffffffffffffffffffffffffffffffff021916908373ffffffffffffffffffffffffffffffffffffffff1602179055506000600a81905550505050620004d2565b8280548282559060005260206000209081019282156200045d579160200282015b828111156200045c5782518260006101000a81548173ffffffffffffffffffffffffffffffffffffffff021916908373ffffffffffffffffffffffffffffffffffffffff1602179055509160200191906001019062000402565b5b5090506200046c91906200048c565b5090565b61014f80620014c783390190565b610c85806200161683390190565b620004cf91905b80821115620004cb57600081816101000a81549073ffffffffffffffffffffffffffffffffffffffff02191690555060010162000493565b5090565b90565b610fe580620004e26000396000f3fe608060405234801561001057600080fd5b506004361061009e5760003560e01c80638c44da1c116100665780638c44da1c146101e4578063a01e2f231461029f578063ca78232d146102bd578063dfbf53ae1461032b578063fc54a2371461034d5761009e565b80630e001b38146100a35780630e04a7d8146100c15780632420f7f0146100e35780633de94925146101665780638b299903146101c2575b600080fd5b6100ab6103bb565b6040518082815260200191505060405180910390f35b6100c96103c1565b604051808215151515815260200191505060405180910390f35b6100eb6103d4565b6040518080602001828103825283818151815260200191508051906020019080838360005b8381101561012b578082015181840152602081019050610110565b50505050905090810190601f1680156101585780820380516001836020036101000a031916815260200191505b509250505060405180910390f35b6101a86004803603602081101561017c57600080fd5b81019080803573ffffffffffffffffffffffffffffffffffffffff16906020019092919050505061053b565b604051808215151515815260200191505060405180910390f35b6101ca61055b565b604051808215151515815260200191505060405180910390f35b61029d600480360360208110156101fa57600080fd5b810190808035906020019064010000000081111561021757600080fd5b82018360208201111561022957600080fd5b8035906020019184600183028401116401000000008311171561024b57600080fd5b91908080601f016020809104026020016040519081016040528093929190818152602001838380828437600081840152601f19601f82011690508083019250505050505050919291929050505061056e565b005b6102a7610894565b6040518082815260200191505060405180910390f35b6102e9600480360360208110156102d357600080fd5b810190808035906020019092919050505061089a565b604051808273ffffffffffffffffffffffffffffffffffffffff1673ffffffffffffffffffffffffffffffffffffffff16815260200191505060405180910390f35b6103336108d6565b604051808215151515815260200191505060405180910390f35b6103796004803603602081101561036357600080fd5b81019080803590602001909291905050506108e9565b604051808273ffffffffffffffffffffffffffffffffffffffff1673ffffffffffffffffffffffffffffffffffffffff16815260200191505060405180910390f35b60075481565b600660019054906101000a900460ff1681565b60606000809054906101000a900473ffffffffffffffffffffffffffffffffffffffff1673ffffffffffffffffffffffffffffffffffffffff1663fbfc2d656040518163ffffffff1660e01b815260040160006040518083038186803b15801561043d57600080fd5b505afa158015610451573d6000803e3d6000fd5b505050506040513d6000823e3d601f19601f82011682018060405250602081101561047b57600080fd5b810190808051604051939291908464010000000082111561049b57600080fd5b838201915060208201858111156104b157600080fd5b82518660018202830111640100000000821117156104ce57600080fd5b8083526020830192505050908051906020019080838360005b838110156105025780820151818401526020810190506104e7565b50505050905090810190601f16801561052f5780820380516001836020036101000a031916815260200191505b50604052505050905090565b60046020528060005260406000206000915054906101000a900460ff1681565b600660009054906101000a900460ff1681565b60001515600660019054906101000a900460ff161515146105da576040517f08c379a0000000000000000000000000000000000000000000000000000000008152600401808060200182810382526026815260200180610f8a6026913960400191505060405180910390fd5b600660009054906101000a900460ff161515600460003373ffffffffffffffffffffffffffffffffffffffff1673ffffffffffffffffffffffffffffffffffffffff16815260200190815260200160002060009054906101000a900460ff161515146106ae576040517f08c379a00000000000000000000000000000000000000000000000000000000081526004018080602001828103825260148152602001807f4e6f7420796f7572207475726e2c20736f72727900000000000000000000000081525060200191505060405180910390fd5b4360055460075401111580156106c657506000600854145b156106fe576106d3610925565b600660009054906101000a900460ff1615600660026101000a81548160ff0219169083151502179055505b60011515600160009054906101000a900473ffffffffffffffffffffffffffffffffffffffff1673ffffffffffffffffffffffffffffffffffffffff166316e23104836040518263ffffffff1660e01b81526004018080602001828103825283818151815260200191508051906020019080838360005b83811015610790578082015181840152602081019050610775565b50505050905090810190601f1680156107bd5780820380516001836020036101000a031916815260200191505b5092505050602060405180830381600087803b1580156107dc57600080fd5b505af11580156107f0573d6000803e3d6000fd5b505050506040513d602081101561080657600080fd5b810190808051906020019092919050505015151461082357600080fd5b80600960003373ffffffffffffffffffffffffffffffffffffffff1673ffffffffffffffffffffffffffffffffffffffff1681526020019081526020016000209080519060200190610876929190610ee4565b50600a60008154809291906001019190505550610891610942565b50565b60055481565b600281815481106108a757fe5b906000526020600020016000915054906101000a900473ffffffffffffffffffffffffffffffffffffffff1681565b600660029054906101000a900460ff1681565b600381815481106108f657fe5b906000526020600020016000915054906101000a900473ffffffffffffffffffffffffffffffffffffffff1681565b6001600660016101000a81548160ff021916908315150217905550565b6000600660009054906101000a900460ff161561096657600380549050905061096f565b60028054905090505b80600a541061098157610980610984565b5b50565b6000606060001515600660009054906101000a900460ff1615151415610a32576002805480602002602001604051908101604052809291908181526020018280548015610a2657602002820191906000526020600020905b8160009054906101000a900473ffffffffffffffffffffffffffffffffffffffff1673ffffffffffffffffffffffffffffffffffffffff16815260200190600101908083116109dc575b50505050509050610abc565b6003805480602002602001604051908101604052809291908181526020018280548015610ab457602002820191906000526020600020905b8160009054906101000a900473ffffffffffffffffffffffffffffffffffffffff1673ffffffffffffffffffffffffffffffffffffffff1681526020019060010190808311610a6a575b505050505090505b60606001600a5401604051908082528060200260200182016040528015610af757816020015b6060815260200190600190039081610ae25790505b509050600080905060008490505b600a54811015610c9c5760096000858381518110610b1f57fe5b602002602001015173ffffffffffffffffffffffffffffffffffffffff1673ffffffffffffffffffffffffffffffffffffffff1681526020019081526020016000208054600181600116156101000203166002900480601f016020809104026020016040519081016040528092919081815260200182805460018160011615610100020316600290048015610bf55780601f10610bca57610100808354040283529160200191610bf5565b820191906000526020600020905b815481529060010190602001808311610bd857829003601f168201915b5050505050838381518110610c0657fe5b60200260200101819052506040518060200160405280600081525060096000868481518110610c3157fe5b602002602001015173ffffffffffffffffffffffffffffffffffffffff1673ffffffffffffffffffffffffffffffffffffffff1681526020019081526020016000209080519060200190610c86929190610ee4565b5081806001019250508080600101915050610b05565b5060006001600a541415610cb35760009050610cef565b600a546001430340604051602001808281526020019150506040516020818303038152906040528051906020012060001c81610ceb57fe5b0690505b6000809054906101000a900473ffffffffffffffffffffffffffffffffffffffff1673ffffffffffffffffffffffffffffffffffffffff16636aa68e4b848381518110610d3857fe5b60200260200101516040518263ffffffff1660e01b81526004018080602001828103825283818151815260200191508051906020019080838360005b83811015610d8f578082015181840152602081019050610d74565b50505050905090810190601f168015610dbc5780820380516001836020036101000a031916815260200191505b5092505050600060405180830381600087803b158015610ddb57600080fd5b505af1158015610def573d6000803e3d6000fd5b505050506040513d6000823e3d601f19601f820116820180604052506020811015610e1957600080fd5b8101908080516040519392919084640100000000821115610e3957600080fd5b83820191506020820185811115610e4f57600080fd5b8251866001820283011164010000000082111715610e6c57600080fd5b8083526020830192505050908051906020019080838360005b83811015610ea0578082015181840152602081019050610e85565b50505050905090810190601f168015610ecd5780820380516001836020036101000a031916815260200191505b50604052505050506000600a819055505050505050565b828054600181600116156101000203166002900490600052602060002090601f016020900481019282601f10610f2557805160ff1916838001178555610f53565b82800160010185558215610f53579182015b82811115610f52578251825591602001919060010190610f37565b5b509050610f609190610f64565b5090565b610f8691905b80821115610f82576000816000905550600101610f6a565b5090565b9056fe47616d65206973206f7665722c206e6f206d6f726520766f74696e6720666f72207475726e73a264697066735822122051319ed820dcbeda8c35e92c8c56bb9f0d4afe5209b3244d8b1811d5dbe4b45864736f6c63430006010033608060405234801561001057600080fd5b5061012f806100206000396000f3fe608060405260043610601c5760003560e01c806316e23104146021575b600080fd5b60d460048036036020811015603557600080fd5b8101908080359060200190640100000000811115605157600080fd5b820183602082011115606257600080fd5b80359060200191846001830284011164010000000083111715608357600080fd5b91908080601f016020809104026020016040519081016040528093929190818152602001838380828437600081840152601f19601f82011690508083019250505050505050919291929050505060ee565b604051808215151515815260200191505060405180910390f35b60006001905091905056fea2646970667358221220461f76442ae2792610521125885cfec9f105a8be20c628a6008217b36d0b187c64736f6c63430006010033608060405234801561001057600080fd5b5060006100216100f360201b60201c565b9050806000806101000a81548173ffffffffffffffffffffffffffffffffffffffff021916908373ffffffffffffffffffffffffffffffffffffffff1602179055508073ffffffffffffffffffffffffffffffffffffffff16600073ffffffffffffffffffffffffffffffffffffffff167f8be0079c531659141344cd1fd0a4f28419497f9722a3daafe3b4186f6b6457e060405160405180910390a350604051806060016040528060388152602001610c4d60389139600290805190602001906100ed9291906100fb565b506101a0565b600033905090565b828054600181600116156101000203166002900490600052602060002090601f016020900481019282601f1061013c57805160ff191683800117855561016a565b8280016001018555821561016a579182015b8281111561016957825182559160200191906001019061014e565b5b509050610177919061017b565b5090565b61019d91905b80821115610199576000816000905550600101610181565b5090565b90565b610a9e806101af6000396000f3fe608060405234801561001057600080fd5b50600436106100625760003560e01c80636aa68e4b14610067578063715018a61461019b5780638da5cb5b146101a5578063a7a38f0b146101ef578063f2fde38b14610296578063fbfc2d65146102da575b600080fd5b6101206004803603602081101561007d57600080fd5b810190808035906020019064010000000081111561009a57600080fd5b8201836020820111156100ac57600080fd5b803590602001918460018302840111640100000000831117156100ce57600080fd5b91908080601f016020809104026020016040519081016040528093929190818152602001838380828437600081840152601f19601f82011690508083019250505050505050919291929050505061035d565b6040518080602001828103825283818151815260200191508051906020019080838360005b83811015610160578082015181840152602081019050610145565b50505050905090810190601f16801561018d5780820380516001836020036101000a031916815260200191505b509250505060405180910390f35b6101a3610480565b005b6101ad610608565b604051808273ffffffffffffffffffffffffffffffffffffffff1673ffffffffffffffffffffffffffffffffffffffff16815260200191505060405180910390f35b61021b6004803603602081101561020557600080fd5b8101908080359060200190929190505050610631565b6040518080602001828103825283818151815260200191508051906020019080838360005b8381101561025b578082015181840152602081019050610240565b50505050905090810190601f1680156102885780820380516001836020036101000a031916815260200191505b509250505060405180910390f35b6102d8600480360360208110156102ac57600080fd5b81019080803573ffffffffffffffffffffffffffffffffffffffff1690602001909291905050506106ea565b005b6102e26108f7565b6040518080602001828103825283818151815260200191508051906020019080838360005b83811015610322578082015181840152602081019050610307565b50505050905090810190601f16801561034f5780820380516001836020036101000a031916815260200191505b509250505060405180910390f35b6060610367610995565b73ffffffffffffffffffffffffffffffffffffffff166000809054906101000a900473ffffffffffffffffffffffffffffffffffffffff1673ffffffffffffffffffffffffffffffffffffffff1614610428576040517f08c379a00000000000000000000000000000000000000000000000000000000081526004018080602001828103825260208152602001807f4f776e61626c653a2063616c6c6572206973206e6f7420746865206f776e657281525060200191505060405180910390fd5b60018290806001815401808255809150506001900390600052602060002001600090919091909150908051906020019061046392919061099d565b50816002908051906020019061047a92919061099d565b50919050565b610488610995565b73ffffffffffffffffffffffffffffffffffffffff166000809054906101000a900473ffffffffffffffffffffffffffffffffffffffff1673ffffffffffffffffffffffffffffffffffffffff1614610549576040517f08c379a00000000000000000000000000000000000000000000000000000000081526004018080602001828103825260208152602001807f4f776e61626c653a2063616c6c6572206973206e6f7420746865206f776e657281525060200191505060405180910390fd5b600073ffffffffffffffffffffffffffffffffffffffff166000809054906101000a900473ffffffffffffffffffffffffffffffffffffffff1673ffffffffffffffffffffffffffffffffffffffff167f8be0079c531659141344cd1fd0a4f28419497f9722a3daafe3b4186f6b6457e060405160405180910390a360008060006101000a81548173ffffffffffffffffffffffffffffffffffffffff021916908373ffffffffffffffffffffffffffffffffffffffff160217905550565b60008060009054906101000a900473ffffffffffffffffffffffffffffffffffffffff16905090565b6001818154811061063e57fe5b906000526020600020016000915090508054600181600116156101000203166002900480601f0160208091040260200160405190810160405280929190818152602001828054600181600116156101000203166002900480156106e25780601f106106b7576101008083540402835291602001916106e2565b820191906000526020600020905b8154815290600101906020018083116106c557829003601f168201915b505050505081565b6106f2610995565b73ffffffffffffffffffffffffffffffffffffffff166000809054906101000a900473ffffffffffffffffffffffffffffffffffffffff1673ffffffffffffffffffffffffffffffffffffffff16146107b3576040517f08c379a00000000000000000000000000000000000000000000000000000000081526004018080602001828103825260208152602001807f4f776e61626c653a2063616c6c6572206973206e6f7420746865206f776e657281525060200191505060405180910390fd5b600073ffffffffffffffffffffffffffffffffffffffff168173ffffffffffffffffffffffffffffffffffffffff161415610839576040517f08c379a0000000000000000000000000000000000000000000000000000000008152600401808060200182810382526026815260200180610a436026913960400191505060405180910390fd5b8073ffffffffffffffffffffffffffffffffffffffff166000809054906101000a900473ffffffffffffffffffffffffffffffffffffffff1673ffffffffffffffffffffffffffffffffffffffff167f8be0079c531659141344cd1fd0a4f28419497f9722a3daafe3b4186f6b6457e060405160405180910390a3806000806101000a81548173ffffffffffffffffffffffffffffffffffffffff021916908373ffffffffffffffffffffffffffffffffffffffff16021790555050565b60028054600181600116156101000203166002900480601f01602080910402602001604051908101604052809291908181526020018280546001816001161561010002031660029004801561098d5780601f106109625761010080835404028352916020019161098d565b820191906000526020600020905b81548152906001019060200180831161097057829003601f168201915b505050505081565b600033905090565b828054600181600116156101000203166002900490600052602060002090601f016020900481019282601f106109de57805160ff1916838001178555610a0c565b82800160010185558215610a0c579182015b82811115610a0b5782518255916020019190600101906109f0565b5b509050610a199190610a1d565b5090565b610a3f91905b80821115610a3b576000816000905550600101610a23565b5090565b9056fe4f776e61626c653a206e6577206f776e657220697320746865207a65726f2061646472657373a2646970667358221220acbea9d1d134a4436f5ea86bcbbaa60e450852bb6bc750b1ab9d30e05b0f216a64736f6c63430006010033726e62716b626e722f70707070707070702f382f382f382f382f50505050505050502f524e42514b424e522077204b516b71202d20302031a26469706673582212200fd30c874deafe4eea2c4311623d3df47f2c8edd3a083d98c434c340e25dee7e64736f6c63430006010033",
  "source": "pragma solidity >=0.4.22 <0.8.0;\r\n\r\nimport './ChessGame.sol';\r\n\r\ncontract GameCreator {\r\n\r\n    ///Would not be implemented in \"live\" as this would get too large if the app became popular\r\n    ///Could be replaced with a database, or with people recording their own game's addresses to plug into the app\r\n    address[] public games;\r\n    ///This exists only as a source to retrieve the latest game, incase a user forgets their latest address\r\n    mapping(address => address) public latestGame;\r\n    \r\n    function newGame(address[] memory _whitePlayers, address[] memory _blackPlayers, uint _blockFactor) public returns(address newContract) {\r\n        ChessGame chessGame = new ChessGame(_whitePlayers, _blackPlayers, _blockFactor);\r\n        games.push(address(chessGame));\r\n        latestGame[msg.sender] = address(chessGame);\r\n        return address(chessGame);\r\n    }\r\n\r\n    function getGamesSize() public view returns (uint size){\r\n        return games.length;\r\n    }\r\n\r\n}",
  "sourcePath": "E:/dev/Consensys Course/EtherChess/contracts/GameCreator.sol",
  "compiler": {
    "name": "solc",
    "version": "0.6.1+commit.e6f7d5a4.Emscripten.clang"
  },
  "schemaVersion": "3.2.5",
  "updatedAt": "2020-12-09T14:18:52.860Z",
  "networkType": "ethereum",
  "devdoc": {
    "methods": {}
  },
  "userdoc": {
    "methods": {}
  }
}