{
  "contractName": "GameCreator",
  "abi": [
    {
      "inputs": [
        {
          "internalType": "uint256",
          "name": "",
          "type": "uint256"
        }
      ],
      "name": "games",
      "outputs": [
        {
          "internalType": "address",
          "name": "",
          "type": "address"
        }
      ],
      "stateMutability": "view",
      "type": "function"
    },
    {
      "inputs": [
        {
          "internalType": "address[]",
          "name": "_players",
          "type": "address[]"
        },
        {
          "internalType": "uint256",
          "name": "_blockFactor",
          "type": "uint256"
        }
      ],
      "name": "newGame",
      "outputs": [
        {
          "internalType": "address",
          "name": "newContract",
          "type": "address"
        }
      ],
      "stateMutability": "nonpayable",
      "type": "function"
    },
    {
      "inputs": [],
      "name": "getGamesSize",
      "outputs": [
        {
          "internalType": "uint256",
          "name": "size",
          "type": "uint256"
        }
      ],
      "stateMutability": "view",
      "type": "function"
    }
  ],
  "bytecode": "0x608060405234801561001057600080fd5b50611db5806100206000396000f3fe608060405234801561001057600080fd5b50600436106100405760003560e01c806238bac214610045578063117a5b9014610147578063a28b7965146101b5575b600080fd5b6101056004803603604081101561005b57600080fd5b810190808035906020019064010000000081111561007857600080fd5b82018360208201111561008a57600080fd5b803590602001918460208302840111640100000000831117156100ac57600080fd5b919080806020026020016040519081016040528093929190818152602001838360200280828437600081840152601f19601f820116905080830192505050505050509192919290803590602001909291905050506101d3565b604051808273ffffffffffffffffffffffffffffffffffffffff1673ffffffffffffffffffffffffffffffffffffffff16815260200191505060405180910390f35b6101736004803603602081101561015d57600080fd5b81019080803590602001909291905050506102c2565b604051808273ffffffffffffffffffffffffffffffffffffffff1673ffffffffffffffffffffffffffffffffffffffff16815260200191505060405180910390f35b6101bd6102fe565b6040518082815260200191505060405180910390f35b60008083836040516101e49061030a565b8080602001838152602001828103825284818151815260200191508051906020019060200280838360005b8381101561022a57808201518184015260208101905061020f565b505050509050019350505050604051809103906000f080158015610252573d6000803e3d6000fd5b5090506000819080600181540180825580915050600190039060005260206000200160009091909190916101000a81548173ffffffffffffffffffffffffffffffffffffffff021916908373ffffffffffffffffffffffffffffffffffffffff1602179055508091505092915050565b600081815481106102cf57fe5b906000526020600020016000915054906101000a900473ffffffffffffffffffffffffffffffffffffffff1681565b60008080549050905090565b611a68806103188339019056fe608060405234801561001057600080fd5b5060405162001a6838038062001a688339818101604052604081101561003557600080fd5b810190808051604051939291908464010000000082111561005557600080fd5b8382019150602082018581111561006b57600080fd5b825186602082028301116401000000008211171561008857600080fd5b8083526020830192505050908051906020019060200280838360005b838110156100bf5780820151818401526020810190506100a4565b505050509050016040526020018051906020019092919050505081600290805190602001906100ef929190610227565b50806004819055506000600560006101000a81548160ff0219169083151502179055506000600560016101000a81548160ff0219169083151502179055506000600560026101000a81548160ff0219169083151502179055504360068190555060405161015b906102b1565b604051809103906000f080158015610177573d6000803e3d6000fd5b50600160006101000a81548173ffffffffffffffffffffffffffffffffffffffff021916908373ffffffffffffffffffffffffffffffffffffffff1602179055506040516101c4906102bf565b604051809103906000f0801580156101e0573d6000803e3d6000fd5b506000806101000a81548173ffffffffffffffffffffffffffffffffffffffff021916908373ffffffffffffffffffffffffffffffffffffffff1602179055505050610310565b8280548282559060005260206000209081019282156102a0579160200282015b8281111561029f5782518260006101000a81548173ffffffffffffffffffffffffffffffffffffffff021916908373ffffffffffffffffffffffffffffffffffffffff16021790555091602001919060010190610247565b5b5090506102ad91906102cd565b5090565b61014f8062000c9483390190565b610c858062000de383390190565b61030d91905b8082111561030957600081816101000a81549073ffffffffffffffffffffffffffffffffffffffff0219169055506001016102d3565b5090565b90565b61097480620003206000396000f3fe608060405234801561001057600080fd5b50600436106100935760003560e01c80638b299903116100665780638b299903146101b75780638c44da1c146101d9578063a01e2f2314610294578063dfbf53ae146102b2578063f71d96cb146102d457610093565b80630e001b38146100985780630e04a7d8146100b65780632420f7f0146100d85780633de949251461015b575b600080fd5b6100a0610342565b6040518082815260200191505060405180910390f35b6100be610348565b604051808215151515815260200191505060405180910390f35b6100e061035b565b6040518080602001828103825283818151815260200191508051906020019080838360005b83811015610120578082015181840152602081019050610105565b50505050905090810190601f16801561014d5780820380516001836020036101000a031916815260200191505b509250505060405180910390f35b61019d6004803603602081101561017157600080fd5b81019080803573ffffffffffffffffffffffffffffffffffffffff1690602001909291905050506104c2565b604051808215151515815260200191505060405180910390f35b6101bf6104e2565b604051808215151515815260200191505060405180910390f35b610292600480360360208110156101ef57600080fd5b810190808035906020019064010000000081111561020c57600080fd5b82018360208201111561021e57600080fd5b8035906020019184600183028401116401000000008311171561024057600080fd5b91908080601f016020809104026020016040519081016040528093929190818152602001838380828437600081840152601f19601f8201169050808301925050505050505091929192905050506104f5565b005b61029c610801565b6040518082815260200191505060405180910390f35b6102ba610807565b604051808215151515815260200191505060405180910390f35b610300600480360360208110156102ea57600080fd5b810190808035906020019092919050505061081a565b604051808273ffffffffffffffffffffffffffffffffffffffff1673ffffffffffffffffffffffffffffffffffffffff16815260200191505060405180910390f35b60065481565b600560019054906101000a900460ff1681565b60606000809054906101000a900473ffffffffffffffffffffffffffffffffffffffff1673ffffffffffffffffffffffffffffffffffffffff1663fbfc2d656040518163ffffffff1660e01b815260040160006040518083038186803b1580156103c457600080fd5b505afa1580156103d8573d6000803e3d6000fd5b505050506040513d6000823e3d601f19601f82011682018060405250602081101561040257600080fd5b810190808051604051939291908464010000000082111561042257600080fd5b8382019150602082018581111561043857600080fd5b825186600182028301116401000000008211171561045557600080fd5b8083526020830192505050908051906020019080838360005b8381101561048957808201518184015260208101905061046e565b50505050905090810190601f1680156104b65780820380516001836020036101000a031916815260200191505b50604052505050905090565b60036020528060005260406000206000915054906101000a900460ff1681565b600560009054906101000a900460ff1681565b60001515600560019054906101000a900460ff16151514610561576040517f08c379a00000000000000000000000000000000000000000000000000000000081526004018080602001828103825260268152602001806109196026913960400191505060405180910390fd5b600560009054906101000a900460ff161515600360003373ffffffffffffffffffffffffffffffffffffffff1673ffffffffffffffffffffffffffffffffffffffff16815260200190815260200160002060009054906101000a900460ff16151514610635576040517f08c379a00000000000000000000000000000000000000000000000000000000081526004018080602001828103825260148152602001807f4e6f7420796f7572207475726e2c20736f72727900000000000000000000000081525060200191505060405180910390fd5b43600454600654011115801561064d57506000600754145b156106855761065a610856565b600560009054906101000a900460ff1615600560026101000a81548160ff0219169083151502179055505b60011515600160009054906101000a900473ffffffffffffffffffffffffffffffffffffffff1673ffffffffffffffffffffffffffffffffffffffff166316e23104836040518263ffffffff1660e01b81526004018080602001828103825283818151815260200191508051906020019080838360005b838110156107175780820151818401526020810190506106fc565b50505050905090810190601f1680156107445780820380516001836020036101000a031916815260200191505b5092505050602060405180830381600087803b15801561076357600080fd5b505af1158015610777573d6000803e3d6000fd5b505050506040513d602081101561078d57600080fd5b81019080805190602001909291905050501515146107aa57600080fd5b80600860003373ffffffffffffffffffffffffffffffffffffffff1673ffffffffffffffffffffffffffffffffffffffff16815260200190815260200160002090805190602001906107fd929190610873565b5050565b60045481565b600560029054906101000a900460ff1681565b6002818154811061082757fe5b906000526020600020016000915054906101000a900473ffffffffffffffffffffffffffffffffffffffff1681565b6001600560016101000a81548160ff021916908315150217905550565b828054600181600116156101000203166002900490600052602060002090601f016020900481019282601f106108b457805160ff19168380011785556108e2565b828001600101855582156108e2579182015b828111156108e15782518255916020019190600101906108c6565b5b5090506108ef91906108f3565b5090565b61091591905b808211156109115760008160009055506001016108f9565b5090565b9056fe47616d65206973206f7665722c206e6f206d6f726520766f74696e6720666f72207475726e73a2646970667358221220b22a43efda9fe371ccc8e3430c96e43a343e34d3f31fc64d828c5d86c97b064864736f6c63430006010033608060405234801561001057600080fd5b5061012f806100206000396000f3fe608060405260043610601c5760003560e01c806316e23104146021575b600080fd5b60d460048036036020811015603557600080fd5b8101908080359060200190640100000000811115605157600080fd5b820183602082011115606257600080fd5b80359060200191846001830284011164010000000083111715608357600080fd5b91908080601f016020809104026020016040519081016040528093929190818152602001838380828437600081840152601f19601f82011690508083019250505050505050919291929050505060ee565b604051808215151515815260200191505060405180910390f35b60006001905091905056fea2646970667358221220461f76442ae2792610521125885cfec9f105a8be20c628a6008217b36d0b187c64736f6c63430006010033608060405234801561001057600080fd5b5060006100216100f360201b60201c565b9050806000806101000a81548173ffffffffffffffffffffffffffffffffffffffff021916908373ffffffffffffffffffffffffffffffffffffffff1602179055508073ffffffffffffffffffffffffffffffffffffffff16600073ffffffffffffffffffffffffffffffffffffffff167f8be0079c531659141344cd1fd0a4f28419497f9722a3daafe3b4186f6b6457e060405160405180910390a350604051806060016040528060388152602001610c4d60389139600290805190602001906100ed9291906100fb565b506101a0565b600033905090565b828054600181600116156101000203166002900490600052602060002090601f016020900481019282601f1061013c57805160ff191683800117855561016a565b8280016001018555821561016a579182015b8281111561016957825182559160200191906001019061014e565b5b509050610177919061017b565b5090565b61019d91905b80821115610199576000816000905550600101610181565b5090565b90565b610a9e806101af6000396000f3fe608060405234801561001057600080fd5b50600436106100625760003560e01c80636aa68e4b14610067578063715018a61461019b5780638da5cb5b146101a5578063a7a38f0b146101ef578063f2fde38b14610296578063fbfc2d65146102da575b600080fd5b6101206004803603602081101561007d57600080fd5b810190808035906020019064010000000081111561009a57600080fd5b8201836020820111156100ac57600080fd5b803590602001918460018302840111640100000000831117156100ce57600080fd5b91908080601f016020809104026020016040519081016040528093929190818152602001838380828437600081840152601f19601f82011690508083019250505050505050919291929050505061035d565b6040518080602001828103825283818151815260200191508051906020019080838360005b83811015610160578082015181840152602081019050610145565b50505050905090810190601f16801561018d5780820380516001836020036101000a031916815260200191505b509250505060405180910390f35b6101a3610480565b005b6101ad610608565b604051808273ffffffffffffffffffffffffffffffffffffffff1673ffffffffffffffffffffffffffffffffffffffff16815260200191505060405180910390f35b61021b6004803603602081101561020557600080fd5b8101908080359060200190929190505050610631565b6040518080602001828103825283818151815260200191508051906020019080838360005b8381101561025b578082015181840152602081019050610240565b50505050905090810190601f1680156102885780820380516001836020036101000a031916815260200191505b509250505060405180910390f35b6102d8600480360360208110156102ac57600080fd5b81019080803573ffffffffffffffffffffffffffffffffffffffff1690602001909291905050506106ea565b005b6102e26108f7565b6040518080602001828103825283818151815260200191508051906020019080838360005b83811015610322578082015181840152602081019050610307565b50505050905090810190601f16801561034f5780820380516001836020036101000a031916815260200191505b509250505060405180910390f35b6060610367610995565b73ffffffffffffffffffffffffffffffffffffffff166000809054906101000a900473ffffffffffffffffffffffffffffffffffffffff1673ffffffffffffffffffffffffffffffffffffffff1614610428576040517f08c379a00000000000000000000000000000000000000000000000000000000081526004018080602001828103825260208152602001807f4f776e61626c653a2063616c6c6572206973206e6f7420746865206f776e657281525060200191505060405180910390fd5b60018290806001815401808255809150506001900390600052602060002001600090919091909150908051906020019061046392919061099d565b50816002908051906020019061047a92919061099d565b50919050565b610488610995565b73ffffffffffffffffffffffffffffffffffffffff166000809054906101000a900473ffffffffffffffffffffffffffffffffffffffff1673ffffffffffffffffffffffffffffffffffffffff1614610549576040517f08c379a00000000000000000000000000000000000000000000000000000000081526004018080602001828103825260208152602001807f4f776e61626c653a2063616c6c6572206973206e6f7420746865206f776e657281525060200191505060405180910390fd5b600073ffffffffffffffffffffffffffffffffffffffff166000809054906101000a900473ffffffffffffffffffffffffffffffffffffffff1673ffffffffffffffffffffffffffffffffffffffff167f8be0079c531659141344cd1fd0a4f28419497f9722a3daafe3b4186f6b6457e060405160405180910390a360008060006101000a81548173ffffffffffffffffffffffffffffffffffffffff021916908373ffffffffffffffffffffffffffffffffffffffff160217905550565b60008060009054906101000a900473ffffffffffffffffffffffffffffffffffffffff16905090565b6001818154811061063e57fe5b906000526020600020016000915090508054600181600116156101000203166002900480601f0160208091040260200160405190810160405280929190818152602001828054600181600116156101000203166002900480156106e25780601f106106b7576101008083540402835291602001916106e2565b820191906000526020600020905b8154815290600101906020018083116106c557829003601f168201915b505050505081565b6106f2610995565b73ffffffffffffffffffffffffffffffffffffffff166000809054906101000a900473ffffffffffffffffffffffffffffffffffffffff1673ffffffffffffffffffffffffffffffffffffffff16146107b3576040517f08c379a00000000000000000000000000000000000000000000000000000000081526004018080602001828103825260208152602001807f4f776e61626c653a2063616c6c6572206973206e6f7420746865206f776e657281525060200191505060405180910390fd5b600073ffffffffffffffffffffffffffffffffffffffff168173ffffffffffffffffffffffffffffffffffffffff161415610839576040517f08c379a0000000000000000000000000000000000000000000000000000000008152600401808060200182810382526026815260200180610a436026913960400191505060405180910390fd5b8073ffffffffffffffffffffffffffffffffffffffff166000809054906101000a900473ffffffffffffffffffffffffffffffffffffffff1673ffffffffffffffffffffffffffffffffffffffff167f8be0079c531659141344cd1fd0a4f28419497f9722a3daafe3b4186f6b6457e060405160405180910390a3806000806101000a81548173ffffffffffffffffffffffffffffffffffffffff021916908373ffffffffffffffffffffffffffffffffffffffff16021790555050565b60028054600181600116156101000203166002900480601f01602080910402602001604051908101604052809291908181526020018280546001816001161561010002031660029004801561098d5780601f106109625761010080835404028352916020019161098d565b820191906000526020600020905b81548152906001019060200180831161097057829003601f168201915b505050505081565b600033905090565b828054600181600116156101000203166002900490600052602060002090601f016020900481019282601f106109de57805160ff1916838001178555610a0c565b82800160010185558215610a0c579182015b82811115610a0b5782518255916020019190600101906109f0565b5b509050610a199190610a1d565b5090565b610a3f91905b80821115610a3b576000816000905550600101610a23565b5090565b9056fe4f776e61626c653a206e6577206f776e657220697320746865207a65726f2061646472657373a2646970667358221220acbea9d1d134a4436f5ea86bcbbaa60e450852bb6bc750b1ab9d30e05b0f216a64736f6c63430006010033726e62716b626e722f70707070707070702f382f382f382f382f50505050505050502f524e42514b424e522077204b516b71202d20302031a264697066735822122079e2df2df5fc27874613c80285606b1a6433f9353c816da8bfccaafee50a8a1564736f6c63430006010033",
  "source": "pragma solidity >=0.4.22 <0.8.0;\r\n\r\nimport './ChessGame.sol';\r\n\r\ncontract GameCreator {\r\n\r\n    //Would not be implemented in \"live\" as this would get too large if the app became popular\r\n    //Could be replaced with a database, or with people recording their own games\r\n    address[] public games;\r\n    \r\n    function newGame(address[] memory _players, uint _blockFactor) public returns(address newContract) {\r\n        ChessGame chessGame = new ChessGame(_players, _blockFactor);\r\n        games.push(address(chessGame));\r\n        return address(chessGame);\r\n    }\r\n\r\n    function getGamesSize() public view returns (uint size){\r\n        return games.length;\r\n    }\r\n\r\n}",
  "sourcePath": "E:/dev/Consensys Course/EtherChess/contracts/GameCreator.sol",
  "compiler": {
    "name": "solc",
    "version": "0.6.1+commit.e6f7d5a4.Emscripten.clang"
  },
  "schemaVersion": "3.2.5",
  "updatedAt": "2020-12-01T16:13:37.808Z",
  "devdoc": {
    "methods": {}
  },
  "userdoc": {
    "methods": {}
  }
}