{
  "contractName": "GameEngine",
  "abi": [
    {
      "inputs": [
        {
          "internalType": "string",
          "name": "_FEN",
          "type": "string"
        }
      ],
      "name": "evaluateMove",
      "outputs": [
        {
          "internalType": "bool",
          "name": "",
          "type": "bool"
        }
      ],
      "stateMutability": "payable",
      "type": "function"
    }
  ],
  "bytecode": "0x608060405234801561001057600080fd5b5061012f806100206000396000f3fe608060405260043610601c5760003560e01c806316e23104146021575b600080fd5b60d460048036036020811015603557600080fd5b8101908080359060200190640100000000811115605157600080fd5b820183602082011115606257600080fd5b80359060200191846001830284011164010000000083111715608357600080fd5b91908080601f016020809104026020016040519081016040528093929190818152602001838380828437600081840152601f19601f82011690508083019250505050505050919291929050505060ee565b604051808215151515815260200191505060405180910390f35b60006001905091905056fea2646970667358221220461f76442ae2792610521125885cfec9f105a8be20c628a6008217b36d0b187c64736f6c63430006010033",
  "source": "pragma solidity >=0.4.22 <0.8.0;\r\n/*A stub contract that would usually evaluate proposed moves and allow/disallow them\r\n    At this point, due to time constraints, this simply evaluates to true allowing illegal moves\r\n    the front-end disallows incorrect moves, but this can easily be bypassed */\r\ncontract GameEngine {\r\n    function evaluateMove(string memory _FEN) public payable returns (bool) {\r\n        return true;\r\n    }\r\n}\r\n",
  "sourcePath": "E:\\dev\\Consensys Course\\EtherChess\\contracts\\GameEngine.sol",
  "compiler": {
    "name": "solc",
    "version": "0.6.1+commit.e6f7d5a4.Emscripten.clang"
  },
  "schemaVersion": "3.2.5",
  "updatedAt": "2020-12-09T14:18:49.768Z",
  "devdoc": {
    "methods": {}
  },
  "userdoc": {
    "methods": {}
  }
}