{
  "contractName": "GameCreator",
  "abi": [
    {
      "inputs": [
        {
          "internalType": "uint256",
          "name": "",
          "type": "uint256"
        }
      ],
      "name": "games",
      "outputs": [
        {
          "internalType": "address",
          "name": "",
          "type": "address"
        }
      ],
      "stateMutability": "view",
      "type": "function",
      "constant": true
    },
    {
      "inputs": [
        {
          "internalType": "address",
          "name": "",
          "type": "address"
        }
      ],
      "name": "latestGame",
      "outputs": [
        {
          "internalType": "address",
          "name": "",
          "type": "address"
        }
      ],
      "stateMutability": "view",
      "type": "function",
      "constant": true
    },
    {
      "inputs": [
        {
          "internalType": "address[]",
          "name": "_whitePlayers",
          "type": "address[]"
        },
        {
          "internalType": "address[]",
          "name": "_blackPlayers",
          "type": "address[]"
        },
        {
          "internalType": "uint256",
          "name": "_blockFactor",
          "type": "uint256"
        }
      ],
      "name": "newGame",
      "outputs": [
        {
          "internalType": "address",
          "name": "newContract",
          "type": "address"
        }
      ],
      "stateMutability": "nonpayable",
      "type": "function"
    },
    {
      "inputs": [],
      "name": "getGamesSize",
      "outputs": [
        {
          "internalType": "uint256",
          "name": "size",
          "type": "uint256"
        }
      ],
      "stateMutability": "view",
      "type": "function",
      "constant": true
    }
  ],
  "bytecode": "0x608060405234801561001057600080fd5b50612f9f806100206000396000f3fe608060405234801561001057600080fd5b506004361061004c5760003560e01c8063117a5b901461005157806351583ac8146100bf578063a28b796514610255578063b553910d14610273575b600080fd5b61007d6004803603602081101561006757600080fd5b81019080803590602001909291905050506102f7565b604051808273ffffffffffffffffffffffffffffffffffffffff1673ffffffffffffffffffffffffffffffffffffffff16815260200191505060405180910390f35b610213600480360360608110156100d557600080fd5b81019080803590602001906401000000008111156100f257600080fd5b82018360208201111561010457600080fd5b8035906020019184602083028401116401000000008311171561012657600080fd5b919080806020026020016040519081016040528093929190818152602001838360200280828437600081840152601f19601f8201169050808301925050505050505091929192908035906020019064010000000081111561018657600080fd5b82018360208201111561019857600080fd5b803590602001918460208302840111640100000000831117156101ba57600080fd5b919080806020026020016040519081016040528093929190818152602001838360200280828437600081840152601f19601f82011690508083019250505050505050919291929080359060200190929190505050610333565b604051808273ffffffffffffffffffffffffffffffffffffffff1673ffffffffffffffffffffffffffffffffffffffff16815260200191505060405180910390f35b61025d6104ea565b6040518082815260200191505060405180910390f35b6102b56004803603602081101561028957600080fd5b81019080803573ffffffffffffffffffffffffffffffffffffffff1690602001909291905050506104f6565b604051808273ffffffffffffffffffffffffffffffffffffffff1673ffffffffffffffffffffffffffffffffffffffff16815260200191505060405180910390f35b6000818154811061030457fe5b906000526020600020016000915054906101000a900473ffffffffffffffffffffffffffffffffffffffff1681565b60008084848460405161034590610529565b808060200180602001848152602001838103835286818151815260200191508051906020019060200280838360005b8381101561038f578082015181840152602081019050610374565b50505050905001838103825285818151815260200191508051906020019060200280838360005b838110156103d15780820151818401526020810190506103b6565b5050505090500195505050505050604051809103906000f0801580156103fb573d6000803e3d6000fd5b5090506000819080600181540180825580915050600190039060005260206000200160009091909190916101000a81548173ffffffffffffffffffffffffffffffffffffffff021916908373ffffffffffffffffffffffffffffffffffffffff16021790555080600160003373ffffffffffffffffffffffffffffffffffffffff1673ffffffffffffffffffffffffffffffffffffffff16815260200190815260200160002060006101000a81548173ffffffffffffffffffffffffffffffffffffffff021916908373ffffffffffffffffffffffffffffffffffffffff160217905550809150509392505050565b60008080549050905090565b60016020528060005260406000206000915054906101000a900473ffffffffffffffffffffffffffffffffffffffff1681565b612a3280620005388339019056fe60806040523480156200001157600080fd5b5060405162002a3238038062002a328339818101604052620000379190810190620005ae565b60048351106200007e576040517f08c379a0000000000000000000000000000000000000000000000000000000008152600401620000759062000678565b60405180910390fd5b6004825110620000c5576040517f08c379a0000000000000000000000000000000000000000000000000000000008152600401620000bc9062000678565b60405180910390fd5b8260029080519060200190620000dd92919062000402565b508160039080519060200190620000f692919062000402565b50806005819055506000600660006101000a81548160ff0219169083151502179055506000600660016101000a81548160ff0219169083151502179055506000600660026101000a81548160ff02191690831515021790555043600781905550604051620001649062000491565b604051809103906000f08015801562000181573d6000803e3d6000fd5b50600160006101000a81548173ffffffffffffffffffffffffffffffffffffffff021916908373ffffffffffffffffffffffffffffffffffffffff160217905550604051620001d0906200049f565b604051809103906000f080158015620001ed573d6000803e3d6000fd5b506000806101000a81548173ffffffffffffffffffffffffffffffffffffffff021916908373ffffffffffffffffffffffffffffffffffffffff1602179055506000600a81905550620002d06002805480602002602001604051908101604052809291908181526020018280548015620002bd57602002820191906000526020600020905b8160009054906101000a900473ffffffffffffffffffffffffffffffffffffffff1673ffffffffffffffffffffffffffffffffffffffff168152602001906001019080831162000272575b505050505060006200037460201b60201c565b6200036b60038054806020026020016040519081016040528092919081815260200182805480156200035857602002820191906000526020600020905b8160009054906101000a900473ffffffffffffffffffffffffffffffffffffffff1673ffffffffffffffffffffffffffffffffffffffff16815260200190600101908083116200030d575b505050505060016200037460201b60201c565b50505062000774565b60008090505b8251811015620003fd5781600460008584815181106200039657fe5b602002602001015173ffffffffffffffffffffffffffffffffffffffff1673ffffffffffffffffffffffffffffffffffffffff16815260200190815260200160002060006101000a81548160ff02191690831515021790555080806001019150506200037a565b505050565b8280548282559060005260206000209081019282156200047e579160200282015b828111156200047d5782518260006101000a81548173ffffffffffffffffffffffffffffffffffffffff021916908373ffffffffffffffffffffffffffffffffffffffff1602179055509160200191906001019062000423565b5b5090506200048d9190620004ad565b5090565b61014f8062001c5e83390190565b610c858062001dad83390190565b620004f091905b80821115620004ec57600081816101000a81549073ffffffffffffffffffffffffffffffffffffffff021916905550600101620004b4565b5090565b90565b600081519050620005048162000740565b92915050565b600082601f8301126200051c57600080fd5b8151620005336200052d82620006c8565b6200069a565b915081818352602084019350602081019050838560208402820111156200055957600080fd5b60005b838110156200058d5781620005728882620004f3565b8452602084019350602083019250506001810190506200055c565b5050505092915050565b600081519050620005a8816200075a565b92915050565b600080600060608486031215620005c457600080fd5b600084015167ffffffffffffffff811115620005df57600080fd5b620005ed868287016200050a565b935050602084015167ffffffffffffffff8111156200060b57600080fd5b62000619868287016200050a565b92505060406200062c8682870162000597565b9150509250925092565b600062000645601b83620006f1565b91507f4d6178696d756d203420706c61796572732065616368207465616d00000000006000830152602082019050919050565b60006020820190508181036000830152620006938162000636565b9050919050565b6000604051905081810181811067ffffffffffffffff82111715620006be57600080fd5b8060405250919050565b600067ffffffffffffffff821115620006e057600080fd5b602082029050602081019050919050565b600082825260208201905092915050565b60006200070f8262000716565b9050919050565b600073ffffffffffffffffffffffffffffffffffffffff82169050919050565b6000819050919050565b6200074b8162000702565b81146200075757600080fd5b50565b620007658162000736565b81146200077157600080fd5b50565b6114da80620007846000396000f3fe608060405234801561001057600080fd5b50600436106100a95760003560e01c80638c44da1c116100715780638c44da1c14610156578063a01e2f2314610172578063a2522d0b14610190578063ca78232d146101af578063dfbf53ae146101df578063fc54a237146101fd576100a9565b80630e001b38146100ae5780630e04a7d8146100cc5780632420f7f0146100ea5780633de94925146101085780638b29990314610138575b600080fd5b6100b661022d565b6040516100c391906112b0565b60405180910390f35b6100d4610233565b6040516100e191906111da565b60405180910390f35b6100f2610246565b6040516100ff9190611217565b60405180910390f35b610122600480360361011d9190810190610e85565b6102f1565b60405161012f91906111da565b60405180910390f35b610140610311565b60405161014d91906111da565b60405180910390f35b610170600480360361016b9190810190610f18565b610324565b005b61017a610599565b60405161018791906112b0565b60405180910390f35b61019861059f565b6040516101a6929190611239565b60405180910390f35b6101c960048036036101c49190810190610f9a565b610752565b6040516101d691906111bf565b60405180910390f35b6101e761078e565b6040516101f491906111da565b60405180910390f35b61021760048036036102129190810190610f9a565b6107a1565b60405161022491906111bf565b60405180910390f35b60075481565b600660019054906101000a900460ff1681565b60606000809054906101000a900473ffffffffffffffffffffffffffffffffffffffff1673ffffffffffffffffffffffffffffffffffffffff1663fbfc2d656040518163ffffffff1660e01b815260040160006040518083038186803b1580156102af57600080fd5b505afa1580156102c3573d6000803e3d6000fd5b505050506040513d6000823e3d601f19601f820116820180604052506102ec9190810190610ed7565b905090565b60046020528060005260406000206000915054906101000a900460ff1681565b600660009054906101000a900460ff1681565b60001515600660019054906101000a900460ff1615151461037a576040517f08c379a000000000000000000000000000000000000000000000000000000000815260040161037190611270565b60405180910390fd5b600660009054906101000a900460ff161515600460003373ffffffffffffffffffffffffffffffffffffffff1673ffffffffffffffffffffffffffffffffffffffff16815260200190815260200160002060009054906101000a900460ff1615151461041b576040517f08c379a000000000000000000000000000000000000000000000000000000000815260040161041290611290565b60405180910390fd5b43600554600754011115801561043357506000600854145b1561046b576104406107dd565b600660009054906101000a900460ff1615600660026101000a81548160ff0219169083151502179055505b60011515600160009054906101000a900473ffffffffffffffffffffffffffffffffffffffff1673ffffffffffffffffffffffffffffffffffffffff166316e23104836040518263ffffffff1660e01b81526004016104ca9190611217565b602060405180830381600087803b1580156104e457600080fd5b505af11580156104f8573d6000803e3d6000fd5b505050506040513d601f19601f8201168201806040525061051c9190810190610eae565b15151461052857600080fd5b80600960003373ffffffffffffffffffffffffffffffffffffffff1673ffffffffffffffffffffffffffffffffffffffff168152602001908152602001600020908051906020019061057b929190610ca5565b50600a600081548092919060010191905055506105966107fa565b50565b60055481565b60608060001515600660009054906101000a900460ff16151514156106885760026040518060400160405280600581526020017f5768697465000000000000000000000000000000000000000000000000000000815250908080548060200260200160405190810160405280929190818152602001828054801561067857602002820191906000526020600020905b8160009054906101000a900473ffffffffffffffffffffffffffffffffffffffff1673ffffffffffffffffffffffffffffffffffffffff168152602001906001019080831161062e575b505050505090509150915061074e565b60036040518060400160405280600581526020017f426c61636b000000000000000000000000000000000000000000000000000000815250908080548060200260200160405190810160405280929190818152602001828054801561074257602002820191906000526020600020905b8160009054906101000a900473ffffffffffffffffffffffffffffffffffffffff1673ffffffffffffffffffffffffffffffffffffffff16815260200190600101908083116106f8575b50505050509050915091505b9091565b6002818154811061075f57fe5b906000526020600020016000915054906101000a900473ffffffffffffffffffffffffffffffffffffffff1681565b600660029054906101000a900460ff1681565b600381815481106107ae57fe5b906000526020600020016000915054906101000a900473ffffffffffffffffffffffffffffffffffffffff1681565b6001600660016101000a81548160ff021916908315150217905550565b6000600660009054906101000a900460ff161561081e576003805490509050610827565b60028054905090505b80600a54106108395761083861083c565b5b50565b6000606060001515600660009054906101000a900460ff16151514156108ea5760028054806020026020016040519081016040528092919081815260200182805480156108de57602002820191906000526020600020905b8160009054906101000a900473ffffffffffffffffffffffffffffffffffffffff1673ffffffffffffffffffffffffffffffffffffffff1681526020019060010190808311610894575b50505050509050610974565b600380548060200260200160405190810160405280929190818152602001828054801561096c57602002820191906000526020600020905b8160009054906101000a900473ffffffffffffffffffffffffffffffffffffffff1673ffffffffffffffffffffffffffffffffffffffff1681526020019060010190808311610922575b505050505090505b60606001600a54016040519080825280602002602001820160405280156109af57816020015b606081526020019060019003908161099a5790505b509050600080905060008490505b600a54811015610b5457600960008583815181106109d757fe5b602002602001015173ffffffffffffffffffffffffffffffffffffffff1673ffffffffffffffffffffffffffffffffffffffff1681526020019081526020016000208054600181600116156101000203166002900480601f016020809104026020016040519081016040528092919081815260200182805460018160011615610100020316600290048015610aad5780601f10610a8257610100808354040283529160200191610aad565b820191906000526020600020905b815481529060010190602001808311610a9057829003601f168201915b5050505050838381518110610abe57fe5b60200260200101819052506040518060200160405280600081525060096000868481518110610ae957fe5b602002602001015173ffffffffffffffffffffffffffffffffffffffff1673ffffffffffffffffffffffffffffffffffffffff1681526020019081526020016000209080519060200190610b3e929190610ca5565b50818060010192505080806001019150506109bd565b5060006001600a541415610b6b5760009050610ba7565b600a546001430340604051602001610b8391906111a4565b6040516020818303038152906040528051906020012060001c81610ba357fe5b0690505b6000809054906101000a900473ffffffffffffffffffffffffffffffffffffffff1673ffffffffffffffffffffffffffffffffffffffff16636aa68e4b848381518110610bf057fe5b60200260200101516040518263ffffffff1660e01b8152600401610c1491906111f5565b600060405180830381600087803b158015610c2e57600080fd5b505af1158015610c42573d6000803e3d6000fd5b505050506040513d6000823e3d601f19601f82011682018060405250610c6b9190810190610f59565b506000600a81905550600660009054906101000a900460ff1615600660006101000a81548160ff0219169083151502179055505050505050565b828054600181600116156101000203166002900490600052602060002090601f016020900481019282601f10610ce657805160ff1916838001178555610d14565b82800160010185558215610d14579182015b82811115610d13578251825591602001919060010190610cf8565b5b509050610d219190610d25565b5090565b610d4791905b80821115610d43576000816000905550600101610d2b565b5090565b90565b600081359050610d598161145f565b92915050565b600081519050610d6e81611476565b92915050565b600082601f830112610d8557600080fd5b8151610d98610d93826112f8565b6112cb565b91508082526020830160208301858383011115610db457600080fd5b610dbf838284611411565b50505092915050565b600082601f830112610dd957600080fd5b8135610dec610de782611324565b6112cb565b91508082526020830160208301858383011115610e0857600080fd5b610e13838284611402565b50505092915050565b600082601f830112610e2d57600080fd5b8151610e40610e3b82611324565b6112cb565b91508082526020830160208301858383011115610e5c57600080fd5b610e67838284611411565b50505092915050565b600081359050610e7f8161148d565b92915050565b600060208284031215610e9757600080fd5b6000610ea584828501610d4a565b91505092915050565b600060208284031215610ec057600080fd5b6000610ece84828501610d5f565b91505092915050565b600060208284031215610ee957600080fd5b600082015167ffffffffffffffff811115610f0357600080fd5b610f0f84828501610d74565b91505092915050565b600060208284031215610f2a57600080fd5b600082013567ffffffffffffffff811115610f4457600080fd5b610f5084828501610dc8565b91505092915050565b600060208284031215610f6b57600080fd5b600082015167ffffffffffffffff811115610f8557600080fd5b610f9184828501610e1c565b91505092915050565b600060208284031215610fac57600080fd5b6000610fba84828501610e70565b91505092915050565b6000610fcf8383610fdb565b60208301905092915050565b610fe4816113b0565b82525050565b610ff3816113b0565b82525050565b600061100482611360565b61100e818561138e565b935061101983611350565b8060005b8381101561104a5781516110318882610fc3565b975061103c83611381565b92505060018101905061101d565b5085935050505092915050565b611060816113c2565b82525050565b611077611072826113ce565b611444565b82525050565b600061108882611376565b611092818561139f565b93506110a2818560208601611411565b6110ab8161144e565b840191505092915050565b60006110c18261136b565b6110cb818561139f565b93506110db818560208601611411565b6110e48161144e565b840191505092915050565b60006110fc60268361139f565b91507f47616d65206973206f7665722c206e6f206d6f726520766f74696e6720666f7260008301527f207475726e7300000000000000000000000000000000000000000000000000006020830152604082019050919050565b600061116260148361139f565b91507f4e6f7420796f7572207475726e2c20736f7272790000000000000000000000006000830152602082019050919050565b61119e816113f8565b82525050565b60006111b08284611066565b60208201915081905092915050565b60006020820190506111d46000830184610fea565b92915050565b60006020820190506111ef6000830184611057565b92915050565b6000602082019050818103600083015261120f81846110b6565b905092915050565b60006020820190508181036000830152611231818461107d565b905092915050565b60006040820190508181036000830152611253818561107d565b905081810360208301526112678184610ff9565b90509392505050565b60006020820190508181036000830152611289816110ef565b9050919050565b600060208201905081810360008301526112a981611155565b9050919050565b60006020820190506112c56000830184611195565b92915050565b6000604051905081810181811067ffffffffffffffff821117156112ee57600080fd5b8060405250919050565b600067ffffffffffffffff82111561130f57600080fd5b601f19601f8301169050602081019050919050565b600067ffffffffffffffff82111561133b57600080fd5b601f19601f8301169050602081019050919050565b6000819050602082019050919050565b600081519050919050565b600081519050919050565b600081519050919050565b6000602082019050919050565b600082825260208201905092915050565b600082825260208201905092915050565b60006113bb826113d8565b9050919050565b60008115159050919050565b6000819050919050565b600073ffffffffffffffffffffffffffffffffffffffff82169050919050565b6000819050919050565b82818337600083830152505050565b60005b8381101561142f578082015181840152602081019050611414565b8381111561143e576000848401525b50505050565b6000819050919050565b6000601f19601f8301169050919050565b611468816113b0565b811461147357600080fd5b50565b61147f816113c2565b811461148a57600080fd5b50565b611496816113f8565b81146114a157600080fd5b5056fea26469706673582212205e0be1c6f047a4794a854ef372ad9a3fd458f38a59e975af36a3f2d950fc9ed164736f6c63430006010033608060405234801561001057600080fd5b5061012f806100206000396000f3fe608060405260043610601c5760003560e01c806316e23104146021575b600080fd5b60d460048036036020811015603557600080fd5b8101908080359060200190640100000000811115605157600080fd5b820183602082011115606257600080fd5b80359060200191846001830284011164010000000083111715608357600080fd5b91908080601f016020809104026020016040519081016040528093929190818152602001838380828437600081840152601f19601f82011690508083019250505050505050919291929050505060ee565b604051808215151515815260200191505060405180910390f35b60006001905091905056fea2646970667358221220461f76442ae2792610521125885cfec9f105a8be20c628a6008217b36d0b187c64736f6c63430006010033608060405234801561001057600080fd5b5060006100216100f360201b60201c565b9050806000806101000a81548173ffffffffffffffffffffffffffffffffffffffff021916908373ffffffffffffffffffffffffffffffffffffffff1602179055508073ffffffffffffffffffffffffffffffffffffffff16600073ffffffffffffffffffffffffffffffffffffffff167f8be0079c531659141344cd1fd0a4f28419497f9722a3daafe3b4186f6b6457e060405160405180910390a350604051806060016040528060388152602001610c4d60389139600290805190602001906100ed9291906100fb565b506101a0565b600033905090565b828054600181600116156101000203166002900490600052602060002090601f016020900481019282601f1061013c57805160ff191683800117855561016a565b8280016001018555821561016a579182015b8281111561016957825182559160200191906001019061014e565b5b509050610177919061017b565b5090565b61019d91905b80821115610199576000816000905550600101610181565b5090565b90565b610a9e806101af6000396000f3fe608060405234801561001057600080fd5b50600436106100625760003560e01c80636aa68e4b14610067578063715018a61461019b5780638da5cb5b146101a5578063a7a38f0b146101ef578063f2fde38b14610296578063fbfc2d65146102da575b600080fd5b6101206004803603602081101561007d57600080fd5b810190808035906020019064010000000081111561009a57600080fd5b8201836020820111156100ac57600080fd5b803590602001918460018302840111640100000000831117156100ce57600080fd5b91908080601f016020809104026020016040519081016040528093929190818152602001838380828437600081840152601f19601f82011690508083019250505050505050919291929050505061035d565b6040518080602001828103825283818151815260200191508051906020019080838360005b83811015610160578082015181840152602081019050610145565b50505050905090810190601f16801561018d5780820380516001836020036101000a031916815260200191505b509250505060405180910390f35b6101a3610480565b005b6101ad610608565b604051808273ffffffffffffffffffffffffffffffffffffffff1673ffffffffffffffffffffffffffffffffffffffff16815260200191505060405180910390f35b61021b6004803603602081101561020557600080fd5b8101908080359060200190929190505050610631565b6040518080602001828103825283818151815260200191508051906020019080838360005b8381101561025b578082015181840152602081019050610240565b50505050905090810190601f1680156102885780820380516001836020036101000a031916815260200191505b509250505060405180910390f35b6102d8600480360360208110156102ac57600080fd5b81019080803573ffffffffffffffffffffffffffffffffffffffff1690602001909291905050506106ea565b005b6102e26108f7565b6040518080602001828103825283818151815260200191508051906020019080838360005b83811015610322578082015181840152602081019050610307565b50505050905090810190601f16801561034f5780820380516001836020036101000a031916815260200191505b509250505060405180910390f35b6060610367610995565b73ffffffffffffffffffffffffffffffffffffffff166000809054906101000a900473ffffffffffffffffffffffffffffffffffffffff1673ffffffffffffffffffffffffffffffffffffffff1614610428576040517f08c379a00000000000000000000000000000000000000000000000000000000081526004018080602001828103825260208152602001807f4f776e61626c653a2063616c6c6572206973206e6f7420746865206f776e657281525060200191505060405180910390fd5b60018290806001815401808255809150506001900390600052602060002001600090919091909150908051906020019061046392919061099d565b50816002908051906020019061047a92919061099d565b50919050565b610488610995565b73ffffffffffffffffffffffffffffffffffffffff166000809054906101000a900473ffffffffffffffffffffffffffffffffffffffff1673ffffffffffffffffffffffffffffffffffffffff1614610549576040517f08c379a00000000000000000000000000000000000000000000000000000000081526004018080602001828103825260208152602001807f4f776e61626c653a2063616c6c6572206973206e6f7420746865206f776e657281525060200191505060405180910390fd5b600073ffffffffffffffffffffffffffffffffffffffff166000809054906101000a900473ffffffffffffffffffffffffffffffffffffffff1673ffffffffffffffffffffffffffffffffffffffff167f8be0079c531659141344cd1fd0a4f28419497f9722a3daafe3b4186f6b6457e060405160405180910390a360008060006101000a81548173ffffffffffffffffffffffffffffffffffffffff021916908373ffffffffffffffffffffffffffffffffffffffff160217905550565b60008060009054906101000a900473ffffffffffffffffffffffffffffffffffffffff16905090565b6001818154811061063e57fe5b906000526020600020016000915090508054600181600116156101000203166002900480601f0160208091040260200160405190810160405280929190818152602001828054600181600116156101000203166002900480156106e25780601f106106b7576101008083540402835291602001916106e2565b820191906000526020600020905b8154815290600101906020018083116106c557829003601f168201915b505050505081565b6106f2610995565b73ffffffffffffffffffffffffffffffffffffffff166000809054906101000a900473ffffffffffffffffffffffffffffffffffffffff1673ffffffffffffffffffffffffffffffffffffffff16146107b3576040517f08c379a00000000000000000000000000000000000000000000000000000000081526004018080602001828103825260208152602001807f4f776e61626c653a2063616c6c6572206973206e6f7420746865206f776e657281525060200191505060405180910390fd5b600073ffffffffffffffffffffffffffffffffffffffff168173ffffffffffffffffffffffffffffffffffffffff161415610839576040517f08c379a0000000000000000000000000000000000000000000000000000000008152600401808060200182810382526026815260200180610a436026913960400191505060405180910390fd5b8073ffffffffffffffffffffffffffffffffffffffff166000809054906101000a900473ffffffffffffffffffffffffffffffffffffffff1673ffffffffffffffffffffffffffffffffffffffff167f8be0079c531659141344cd1fd0a4f28419497f9722a3daafe3b4186f6b6457e060405160405180910390a3806000806101000a81548173ffffffffffffffffffffffffffffffffffffffff021916908373ffffffffffffffffffffffffffffffffffffffff16021790555050565b60028054600181600116156101000203166002900480601f01602080910402602001604051908101604052809291908181526020018280546001816001161561010002031660029004801561098d5780601f106109625761010080835404028352916020019161098d565b820191906000526020600020905b81548152906001019060200180831161097057829003601f168201915b505050505081565b600033905090565b828054600181600116156101000203166002900490600052602060002090601f016020900481019282601f106109de57805160ff1916838001178555610a0c565b82800160010185558215610a0c579182015b82811115610a0b5782518255916020019190600101906109f0565b5b509050610a199190610a1d565b5090565b610a3f91905b80821115610a3b576000816000905550600101610a23565b5090565b9056fe4f776e61626c653a206e6577206f776e657220697320746865207a65726f2061646472657373a2646970667358221220acbea9d1d134a4436f5ea86bcbbaa60e450852bb6bc750b1ab9d30e05b0f216a64736f6c63430006010033726e62716b626e722f70707070707070702f382f382f382f382f50505050505050502f524e42514b424e522077204b516b71202d20302031a2646970667358221220aeaa0eff024d5c5751d7f8243442c99e06913a199f6298a0d08ab066ebe4bb4a64736f6c63430006010033",
  "source": "pragma solidity >=0.4.22 <0.8.0;\r\n\r\nimport './ChessGame.sol';\r\n\r\ncontract GameCreator {\r\n\r\n    ///Would not be implemented in \"live\" as this would get too large if the app became popular\r\n    ///Could be replaced with a database, or with people recording their own game's addresses to plug into the app\r\n    address[] public games;\r\n    ///This exists only as a source to retrieve the latest game, incase a user forgets their latest address\r\n    mapping(address => address) public latestGame;\r\n    \r\n    function newGame(address[] memory _whitePlayers, address[] memory _blackPlayers, uint _blockFactor) public returns(address newContract) {\r\n        ChessGame chessGame = new ChessGame(_whitePlayers, _blackPlayers, _blockFactor);\r\n        games.push(address(chessGame));\r\n        latestGame[msg.sender] = address(chessGame);\r\n        return address(chessGame);\r\n    }\r\n\r\n    function getGamesSize() public view returns (uint size){\r\n        return games.length;\r\n    }\r\n\r\n}",
  "sourcePath": "E:/dev/Consensys Course/EtherChess/contracts/GameCreator.sol",
  "compiler": {
    "name": "solc",
    "version": "0.6.1+commit.e6f7d5a4.Emscripten.clang"
  },
  "schemaVersion": "3.2.5",
  "updatedAt": "2020-12-14T07:34:42.461Z",
  "networkType": "ethereum",
  "devdoc": {
    "methods": {}
  },
  "userdoc": {
    "methods": {}
  }
}